{
  "_format": "hh-sol-artifact-1",
  "contractName": "FHEGovernor",
  "sourceName": "contracts/FHEGovernor.sol",
  "abi": [
    {
      "inputs": [],
      "stateMutability": "nonpayable",
      "type": "constructor"
    },
    {
      "anonymous": false,
      "inputs": [
        {
          "indexed": false,
          "internalType": "uint256",
          "name": "proposeId",
          "type": "uint256"
        }
      ],
      "name": "LogPropose",
      "type": "event"
    },
    {
      "anonymous": false,
      "inputs": [
        {
          "indexed": false,
          "internalType": "address",
          "name": "oldAdmin",
          "type": "address"
        },
        {
          "indexed": false,
          "internalType": "address",
          "name": "newAdmin",
          "type": "address"
        }
      ],
      "name": "NewAdmin",
      "type": "event"
    },
    {
      "anonymous": false,
      "inputs": [
        {
          "indexed": false,
          "internalType": "address",
          "name": "oldImplementation",
          "type": "address"
        },
        {
          "indexed": false,
          "internalType": "address",
          "name": "newImplementation",
          "type": "address"
        }
      ],
      "name": "NewImplementation",
      "type": "event"
    },
    {
      "anonymous": false,
      "inputs": [
        {
          "indexed": false,
          "internalType": "address",
          "name": "oldPendingAdmin",
          "type": "address"
        },
        {
          "indexed": false,
          "internalType": "address",
          "name": "newPendingAdmin",
          "type": "address"
        }
      ],
      "name": "NewPendingAdmin",
      "type": "event"
    },
    {
      "anonymous": false,
      "inputs": [
        {
          "indexed": false,
          "internalType": "uint256",
          "name": "id",
          "type": "uint256"
        }
      ],
      "name": "ProposalCanceled",
      "type": "event"
    },
    {
      "anonymous": false,
      "inputs": [
        {
          "indexed": false,
          "internalType": "uint256",
          "name": "id",
          "type": "uint256"
        },
        {
          "indexed": false,
          "internalType": "address",
          "name": "proposer",
          "type": "address"
        },
        {
          "indexed": false,
          "internalType": "address[]",
          "name": "targets",
          "type": "address[]"
        },
        {
          "indexed": false,
          "internalType": "uint256[]",
          "name": "values",
          "type": "uint256[]"
        },
        {
          "indexed": false,
          "internalType": "string[]",
          "name": "signatures",
          "type": "string[]"
        },
        {
          "indexed": false,
          "internalType": "bytes[]",
          "name": "calldatas",
          "type": "bytes[]"
        },
        {
          "indexed": false,
          "internalType": "uint256",
          "name": "startBlock",
          "type": "uint256"
        },
        {
          "indexed": false,
          "internalType": "uint256",
          "name": "endBlock",
          "type": "uint256"
        },
        {
          "indexed": false,
          "internalType": "string",
          "name": "description",
          "type": "string"
        }
      ],
      "name": "ProposalCreated",
      "type": "event"
    },
    {
      "anonymous": false,
      "inputs": [
        {
          "indexed": false,
          "internalType": "uint256",
          "name": "id",
          "type": "uint256"
        }
      ],
      "name": "ProposalExecuted",
      "type": "event"
    },
    {
      "anonymous": false,
      "inputs": [
        {
          "indexed": false,
          "internalType": "uint256",
          "name": "id",
          "type": "uint256"
        },
        {
          "indexed": false,
          "internalType": "uint256",
          "name": "eta",
          "type": "uint256"
        }
      ],
      "name": "ProposalQueued",
      "type": "event"
    },
    {
      "anonymous": false,
      "inputs": [
        {
          "indexed": false,
          "internalType": "uint256",
          "name": "oldProposalThreshold",
          "type": "uint256"
        },
        {
          "indexed": false,
          "internalType": "uint256",
          "name": "newProposalThreshold",
          "type": "uint256"
        }
      ],
      "name": "ProposalThresholdSet",
      "type": "event"
    },
    {
      "anonymous": false,
      "inputs": [
        {
          "indexed": true,
          "internalType": "address",
          "name": "voter",
          "type": "address"
        },
        {
          "indexed": false,
          "internalType": "uint256",
          "name": "proposalId",
          "type": "uint256"
        },
        {
          "indexed": false,
          "internalType": "uint64",
          "name": "votes",
          "type": "uint64"
        },
        {
          "indexed": false,
          "internalType": "string",
          "name": "reason",
          "type": "string"
        }
      ],
      "name": "VoteCast",
      "type": "event"
    },
    {
      "anonymous": false,
      "inputs": [
        {
          "indexed": false,
          "internalType": "uint256",
          "name": "oldVotingDelay",
          "type": "uint256"
        },
        {
          "indexed": false,
          "internalType": "uint256",
          "name": "newVotingDelay",
          "type": "uint256"
        }
      ],
      "name": "VotingDelaySet",
      "type": "event"
    },
    {
      "anonymous": false,
      "inputs": [
        {
          "indexed": false,
          "internalType": "uint256",
          "name": "oldVotingPeriod",
          "type": "uint256"
        },
        {
          "indexed": false,
          "internalType": "uint256",
          "name": "newVotingPeriod",
          "type": "uint256"
        }
      ],
      "name": "VotingPeriodSet",
      "type": "event"
    },
    {
      "inputs": [],
      "name": "MAX_PROPOSAL_THRESHOLD",
      "outputs": [
        {
          "internalType": "uint256",
          "name": "",
          "type": "uint256"
        }
      ],
      "stateMutability": "view",
      "type": "function"
    },
    {
      "inputs": [],
      "name": "MAX_VOTING_DELAY",
      "outputs": [
        {
          "internalType": "uint256",
          "name": "",
          "type": "uint256"
        }
      ],
      "stateMutability": "view",
      "type": "function"
    },
    {
      "inputs": [],
      "name": "MAX_VOTING_PERIOD",
      "outputs": [
        {
          "internalType": "uint256",
          "name": "",
          "type": "uint256"
        }
      ],
      "stateMutability": "view",
      "type": "function"
    },
    {
      "inputs": [],
      "name": "MIN_PROPOSAL_THRESHOLD",
      "outputs": [
        {
          "internalType": "uint256",
          "name": "",
          "type": "uint256"
        }
      ],
      "stateMutability": "view",
      "type": "function"
    },
    {
      "inputs": [],
      "name": "MIN_VOTING_DELAY",
      "outputs": [
        {
          "internalType": "uint256",
          "name": "",
          "type": "uint256"
        }
      ],
      "stateMutability": "view",
      "type": "function"
    },
    {
      "inputs": [],
      "name": "MIN_VOTING_PERIOD",
      "outputs": [
        {
          "internalType": "uint256",
          "name": "",
          "type": "uint256"
        }
      ],
      "stateMutability": "view",
      "type": "function"
    },
    {
      "inputs": [],
      "name": "_acceptAdmin",
      "outputs": [],
      "stateMutability": "nonpayable",
      "type": "function"
    },
    {
      "inputs": [
        {
          "internalType": "uint256",
          "name": "proposalCount",
          "type": "uint256"
        }
      ],
      "name": "_initiate",
      "outputs": [],
      "stateMutability": "nonpayable",
      "type": "function"
    },
    {
      "inputs": [
        {
          "internalType": "uint64",
          "name": "proposalId",
          "type": "uint64"
        }
      ],
      "name": "_requestDecrypt",
      "outputs": [],
      "stateMutability": "nonpayable",
      "type": "function"
    },
    {
      "inputs": [
        {
          "internalType": "address",
          "name": "newPendingAdmin",
          "type": "address"
        }
      ],
      "name": "_setPendingAdmin",
      "outputs": [],
      "stateMutability": "nonpayable",
      "type": "function"
    },
    {
      "inputs": [
        {
          "internalType": "uint256",
          "name": "newProposalThreshold",
          "type": "uint256"
        }
      ],
      "name": "_setProposalThreshold",
      "outputs": [],
      "stateMutability": "nonpayable",
      "type": "function"
    },
    {
      "inputs": [],
      "name": "admin",
      "outputs": [
        {
          "internalType": "address",
          "name": "",
          "type": "address"
        }
      ],
      "stateMutability": "view",
      "type": "function"
    },
    {
      "inputs": [
        {
          "internalType": "uint256",
          "name": "",
          "type": "uint256"
        },
        {
          "internalType": "uint64",
          "name": "proposalId",
          "type": "uint64"
        },
        {
          "internalType": "uint64",
          "name": "forVotes",
          "type": "uint64"
        },
        {
          "internalType": "uint64",
          "name": "againstVotes",
          "type": "uint64"
        },
        {
          "internalType": "uint64",
          "name": "abstainVotes",
          "type": "uint64"
        }
      ],
      "name": "callbackUint64",
      "outputs": [],
      "stateMutability": "nonpayable",
      "type": "function"
    },
    {
      "inputs": [
        {
          "internalType": "uint256",
          "name": "proposalId",
          "type": "uint256"
        }
      ],
      "name": "cancel",
      "outputs": [],
      "stateMutability": "nonpayable",
      "type": "function"
    },
    {
      "inputs": [
        {
          "internalType": "uint256",
          "name": "proposalId",
          "type": "uint256"
        },
        {
          "internalType": "euint64",
          "name": "support",
          "type": "uint256"
        }
      ],
      "name": "castVote",
      "outputs": [],
      "stateMutability": "nonpayable",
      "type": "function"
    },
    {
      "inputs": [
        {
          "internalType": "uint256",
          "name": "proposalId",
          "type": "uint256"
        },
        {
          "internalType": "einput",
          "name": "encryptedAmount",
          "type": "bytes32"
        },
        {
          "internalType": "bytes",
          "name": "inputProof",
          "type": "bytes"
        }
      ],
      "name": "castVoteByProof",
      "outputs": [],
      "stateMutability": "nonpayable",
      "type": "function"
    },
    {
      "inputs": [],
      "name": "chainId",
      "outputs": [
        {
          "internalType": "uint256",
          "name": "",
          "type": "uint256"
        }
      ],
      "stateMutability": "view",
      "type": "function"
    },
    {
      "inputs": [
        {
          "internalType": "uint256",
          "name": "proposalId",
          "type": "uint256"
        }
      ],
      "name": "execute",
      "outputs": [],
      "stateMutability": "payable",
      "type": "function"
    },
    {
      "inputs": [
        {
          "internalType": "uint256",
          "name": "proposalId",
          "type": "uint256"
        }
      ],
      "name": "getActions",
      "outputs": [
        {
          "internalType": "address[]",
          "name": "targets",
          "type": "address[]"
        },
        {
          "internalType": "uint256[]",
          "name": "values",
          "type": "uint256[]"
        },
        {
          "internalType": "string[]",
          "name": "signatures",
          "type": "string[]"
        },
        {
          "internalType": "bytes[]",
          "name": "calldatas",
          "type": "bytes[]"
        }
      ],
      "stateMutability": "view",
      "type": "function"
    },
    {
      "inputs": [
        {
          "internalType": "uint256",
          "name": "proposalId",
          "type": "uint256"
        }
      ],
      "name": "getProposalReceipts",
      "outputs": [
        {
          "components": [
            {
              "internalType": "euint64",
              "name": "support",
              "type": "uint256"
            },
            {
              "internalType": "uint64",
              "name": "votes",
              "type": "uint64"
            },
            {
              "internalType": "address",
              "name": "voter",
              "type": "address"
            }
          ],
          "internalType": "struct GovernorBravoDelegateStorageV1.OutReceipt[]",
          "name": "out",
          "type": "tuple[]"
        }
      ],
      "stateMutability": "view",
      "type": "function"
    },
    {
      "inputs": [
        {
          "internalType": "uint256",
          "name": "proposalId",
          "type": "uint256"
        },
        {
          "internalType": "address",
          "name": "voter",
          "type": "address"
        }
      ],
      "name": "getReceipt",
      "outputs": [
        {
          "components": [
            {
              "internalType": "bool",
              "name": "hasVoted",
              "type": "bool"
            },
            {
              "internalType": "euint64",
              "name": "support",
              "type": "uint256"
            },
            {
              "internalType": "uint64",
              "name": "votes",
              "type": "uint64"
            },
            {
              "internalType": "bytes32",
              "name": "txhash",
              "type": "bytes32"
            }
          ],
          "internalType": "struct GovernorBravoDelegateStorageV1.Receipt",
          "name": "",
          "type": "tuple"
        }
      ],
      "stateMutability": "view",
      "type": "function"
    },
    {
      "inputs": [
        {
          "internalType": "uint256",
          "name": "proposalId",
          "type": "uint256"
        }
      ],
      "name": "getVoteList",
      "outputs": [
        {
          "internalType": "address[]",
          "name": "list",
          "type": "address[]"
        }
      ],
      "stateMutability": "view",
      "type": "function"
    },
    {
      "inputs": [],
      "name": "implementation",
      "outputs": [
        {
          "internalType": "address",
          "name": "",
          "type": "address"
        }
      ],
      "stateMutability": "view",
      "type": "function"
    },
    {
      "inputs": [],
      "name": "initialProposalId",
      "outputs": [
        {
          "internalType": "uint256",
          "name": "",
          "type": "uint256"
        }
      ],
      "stateMutability": "view",
      "type": "function"
    },
    {
      "inputs": [
        {
          "internalType": "address",
          "name": "timelock_",
          "type": "address"
        },
        {
          "internalType": "address",
          "name": "uni_",
          "type": "address"
        },
        {
          "internalType": "uint256",
          "name": "proposalThreshold_",
          "type": "uint256"
        }
      ],
      "name": "initialize",
      "outputs": [],
      "stateMutability": "nonpayable",
      "type": "function"
    },
    {
      "inputs": [
        {
          "internalType": "address",
          "name": "",
          "type": "address"
        }
      ],
      "name": "latestProposalIds",
      "outputs": [
        {
          "internalType": "uint256",
          "name": "",
          "type": "uint256"
        }
      ],
      "stateMutability": "view",
      "type": "function"
    },
    {
      "inputs": [],
      "name": "name",
      "outputs": [
        {
          "internalType": "string",
          "name": "",
          "type": "string"
        }
      ],
      "stateMutability": "view",
      "type": "function"
    },
    {
      "inputs": [],
      "name": "pendingAdmin",
      "outputs": [
        {
          "internalType": "address",
          "name": "",
          "type": "address"
        }
      ],
      "stateMutability": "view",
      "type": "function"
    },
    {
      "inputs": [],
      "name": "proposalCount",
      "outputs": [
        {
          "internalType": "uint256",
          "name": "",
          "type": "uint256"
        }
      ],
      "stateMutability": "view",
      "type": "function"
    },
    {
      "inputs": [],
      "name": "proposalMaxOperations",
      "outputs": [
        {
          "internalType": "uint256",
          "name": "",
          "type": "uint256"
        }
      ],
      "stateMutability": "view",
      "type": "function"
    },
    {
      "inputs": [],
      "name": "proposalThreshold",
      "outputs": [
        {
          "internalType": "uint256",
          "name": "",
          "type": "uint256"
        }
      ],
      "stateMutability": "view",
      "type": "function"
    },
    {
      "inputs": [
        {
          "internalType": "uint256",
          "name": "",
          "type": "uint256"
        }
      ],
      "name": "proposals",
      "outputs": [
        {
          "internalType": "uint256",
          "name": "id",
          "type": "uint256"
        },
        {
          "internalType": "address",
          "name": "proposer",
          "type": "address"
        },
        {
          "internalType": "uint256",
          "name": "eta",
          "type": "uint256"
        },
        {
          "internalType": "uint256",
          "name": "startBlock",
          "type": "uint256"
        },
        {
          "internalType": "uint256",
          "name": "endBlock",
          "type": "uint256"
        },
        {
          "internalType": "uint64",
          "name": "forVotes",
          "type": "uint64"
        },
        {
          "internalType": "uint64",
          "name": "againstVotes",
          "type": "uint64"
        },
        {
          "internalType": "uint64",
          "name": "abstainVotes",
          "type": "uint64"
        },
        {
          "internalType": "bool",
          "name": "canceled",
          "type": "bool"
        },
        {
          "internalType": "bool",
          "name": "executed",
          "type": "bool"
        },
        {
          "internalType": "string",
          "name": "description",
          "type": "string"
        }
      ],
      "stateMutability": "view",
      "type": "function"
    },
    {
      "inputs": [
        {
          "internalType": "uint256",
          "name": "",
          "type": "uint256"
        }
      ],
      "name": "proposalsCurCTVotes",
      "outputs": [
        {
          "internalType": "euint64",
          "name": "forVotes",
          "type": "uint256"
        },
        {
          "internalType": "euint64",
          "name": "againstVotes",
          "type": "uint256"
        },
        {
          "internalType": "euint64",
          "name": "abstainVotes",
          "type": "uint256"
        },
        {
          "internalType": "uint256",
          "name": "blockHeight",
          "type": "uint256"
        }
      ],
      "stateMutability": "view",
      "type": "function"
    },
    {
      "inputs": [
        {
          "internalType": "address[]",
          "name": "targets",
          "type": "address[]"
        },
        {
          "internalType": "uint256[]",
          "name": "values",
          "type": "uint256[]"
        },
        {
          "internalType": "string[]",
          "name": "signatures",
          "type": "string[]"
        },
        {
          "internalType": "bytes[]",
          "name": "calldatas",
          "type": "bytes[]"
        },
        {
          "internalType": "string",
          "name": "description",
          "type": "string"
        },
        {
          "internalType": "uint256",
          "name": "votingDelay",
          "type": "uint256"
        },
        {
          "internalType": "uint256",
          "name": "votingPeriod",
          "type": "uint256"
        }
      ],
      "name": "propose",
      "outputs": [
        {
          "internalType": "uint256",
          "name": "",
          "type": "uint256"
        }
      ],
      "stateMutability": "nonpayable",
      "type": "function"
    },
    {
      "inputs": [
        {
          "internalType": "uint256",
          "name": "proposalId",
          "type": "uint256"
        }
      ],
      "name": "queue",
      "outputs": [],
      "stateMutability": "nonpayable",
      "type": "function"
    },
    {
      "inputs": [],
      "name": "quorumVotes",
      "outputs": [
        {
          "internalType": "uint256",
          "name": "",
          "type": "uint256"
        }
      ],
      "stateMutability": "view",
      "type": "function"
    },
    {
      "inputs": [
        {
          "internalType": "uint256",
          "name": "proposalId",
          "type": "uint256"
        }
      ],
      "name": "state",
      "outputs": [
        {
          "internalType": "enum GovernorBravoDelegateStorageV1.ProposalState",
          "name": "",
          "type": "uint8"
        }
      ],
      "stateMutability": "view",
      "type": "function"
    },
    {
      "inputs": [],
      "name": "timelock",
      "outputs": [
        {
          "internalType": "contract TimelockInterface",
          "name": "",
          "type": "address"
        }
      ],
      "stateMutability": "view",
      "type": "function"
    },
    {
      "inputs": [],
      "name": "uni",
      "outputs": [
        {
          "internalType": "contract UniInterface",
          "name": "",
          "type": "address"
        }
      ],
      "stateMutability": "view",
      "type": "function"
    }
  ],
  "bytecode": "0x608060405234801561000f575f80fd5b50600a80546001600160a01b031916331790556143408061002f5f395ff3fe608060405260043610610291575f3560e01c8063791f5d2311610165578063da35c664116100c6578063eb0338061161007c578063f851a44011610062578063f851a440146107a0578063fc4eee42146107bf578063fe0d94c1146107d4575f80fd5b8063eb03380614610755578063edc9af9514610781575f80fd5b8063e23a9a52116100ac578063e23a9a52146106cf578063e48083fe1461072d578063e9c714f214610741575f80fd5b8063da35c6641461069b578063ddf0b009146106b0575f80fd5b8063b11262631161011b578063b71d1a0c11610101578063b71d1a0c1461063e578063bd93de2a1461065d578063d33219b41461067c575f80fd5b8063b112626314610614578063b58131b014610629575f80fd5b806385aca9991161014b57806385aca999146105cd5780639a8a0592146105ec578063a64e024a146105fe575f80fd5b8063791f5d23146104015780637bdbe4d0146105b9575f80fd5b806325fd935a1161020f57806340e58ee5116101c5578063501b6ad3116101ab578063501b6ad31461055c578063596c60c11461057b5780635c60da1b1461059a575f80fd5b806340e58ee5146104dd57806350045b5f146104fc575f80fd5b80632c0a3f89116101f55780632c0a3f8914610463578063328dd982146104825780633e4f49e6146104b1575f80fd5b806325fd935a14610414578063267822471461042c575f80fd5b80631794bb3c1161026457806317ba1b8b1161024a57806317ba1b8b146103ce578063215809ca146103ed57806324bc1a6414610401575f80fd5b80631794bb3c1461038257806317977c61146103a3575f80fd5b8063013cf08b14610295578063039414b7146102d457806306fdde03146103015780630fdc11b514610356575b5f80fd5b3480156102a0575f80fd5b506102b46102af366004613518565b6107e7565b6040516102cb9b9a9998979695949392919061357c565b60405180910390f35b3480156102df575f80fd5b506102f36102ee3660046138d3565b6108f1565b6040519081526020016102cb565b34801561030c575f80fd5b506103496040518060400160405280601281526020017f46484520476f7665726e6f7220427261766f000000000000000000000000000081525081565b6040516102cb91906139ae565b348015610361575f80fd5b50610375610370366004613518565b610fca565b6040516102cb9190613a03565b34801561038d575f80fd5b506103a161039c366004613a15565b61109d565b005b3480156103ae575f80fd5b506102f36103bd366004613a4e565b60156020525f908152604090205481565b3480156103d9575f80fd5b506103a16103e8366004613518565b611344565b3480156103f8575f80fd5b506102f3606481565b34801561040c575f80fd5b506102f35f81565b34801561041f575f80fd5b506102f364174876e80081565b348015610437575f80fd5b50600b5461044b906001600160a01b031681565b6040516001600160a01b0390911681526020016102cb565b34801561046e575f80fd5b506103a161047d366004613a67565b611487565b34801561048d575f80fd5b506104a161049c366004613518565b6114e9565b6040516102cb9493929190613b0e565b3480156104bc575f80fd5b506104d06104cb366004613518565b611769565b6040516102cb9190613bba565b3480156104e8575f80fd5b506103a16104f7366004613518565b611930565b348015610507575f80fd5b5061053c610516366004613518565b60146020525f908152604090208054600182015460028301546003909301549192909184565b6040805194855260208501939093529183015260608201526080016102cb565b348015610567575f80fd5b506103a1610576366004613518565b611c3c565b348015610586575f80fd5b506103a1610595366004613bf5565b611d1d565b3480156105a5575f80fd5b50600c5461044b906001600160a01b031681565b3480156105c4575f80fd5b506102f3600a81565b3480156105d8575f80fd5b506103a16105e7366004613c10565b611eea565b3480156105f7575f80fd5b50466102f3565b348015610609575f80fd5b506102f362013b0081565b34801561061f575f80fd5b506102f3619d8081565b348015610634575f80fd5b506102f3600d5481565b348015610649575f80fd5b506103a1610658366004613a4e565b611f33565b348015610668575f80fd5b506103a1610677366004613c89565b61200d565b348015610687575f80fd5b5060105461044b906001600160a01b031681565b3480156106a6575f80fd5b506102f3600f5481565b3480156106bb575f80fd5b506103a16106ca366004613518565b6120aa565b3480156106da575f80fd5b506106ee6106e9366004613ced565b61239d565b6040516102cb91908151151581526020808301519082015260408083015167ffffffffffffffff16908201526060918201519181019190915260800190565b348015610738575f80fd5b506102f3600181565b34801561074c575f80fd5b506103a1612424565b348015610760575f80fd5b5061077461076f366004613518565b61255d565b6040516102cb9190613d17565b34801561078c575f80fd5b5060115461044b906001600160a01b031681565b3480156107ab575f80fd5b50600a5461044b906001600160a01b031681565b3480156107ca575f80fd5b506102f3600e5481565b6103a16107e2366004613518565b612716565b60126020525f90815260409020805460018201546002830154600784015460088501546009860154600a8701805496976001600160a01b039096169694959394929367ffffffffffffffff80841694680100000000000000008504821694600160801b81049092169360ff600160c01b8404811694600160c81b90940416929161087090613d82565b80601f016020809104026020016040519081016040528092919081815260200182805461089c90613d82565b80156108e75780601f106108be576101008083540402835291602001916108e7565b820191905f5260205f20905b8154815290600101906020018083116108ca57829003601f168201915b505050505090508b565b600d546011546040516370a0823160e01b81523360048201525f92916001600160a01b0316906370a0823190602401602060405180830381865afa15801561093b573d5f803e3d5ffd5b505050506040513d601f19601f8201168201806040525081019061095f9190613db4565b67ffffffffffffffff16116109e15760405162461bcd60e51b815260206004820152603f60248201527f476f7665726e6f72427261766f3a3a70726f706f73653a2070726f706f73657260448201527f20766f7465732062656c6f772070726f706f73616c207468726573686f6c640060648201526084015b60405180910390fd5b865188511480156109f3575085518851145b8015610a00575084518851145b610a805760405162461bcd60e51b8152602060048201526044602482018190527f476f7665726e6f72427261766f3a3a70726f706f73653a2070726f706f73616c908201527f2066756e6374696f6e20696e666f726d6174696f6e206172697479206d69736d6064820152630c2e8c6d60e31b608482015260a4016109d8565b87515f03610af65760405162461bcd60e51b815260206004820152602c60248201527f476f7665726e6f72427261766f3a3a70726f706f73653a206d7573742070726f60448201527f7669646520616374696f6e73000000000000000000000000000000000000000060648201526084016109d8565b600a88511115610b6e5760405162461bcd60e51b815260206004820152602860248201527f476f7665726e6f72427261766f3a3a70726f706f73653a20746f6f206d616e7960448201527f20616374696f6e7300000000000000000000000000000000000000000000000060648201526084016109d8565b335f908152601560205260409020548015610cea575f610b8d82611769565b90506001816007811115610ba357610ba3613ba6565b03610c3c5760405162461bcd60e51b815260206004820152605860248201527f476f7665726e6f72427261766f3a3a70726f706f73653a206f6e65206c69766560448201527f2070726f706f73616c207065722070726f706f7365722c20666f756e6420616e60648201527f20616c7265616479206163746976652070726f706f73616c0000000000000000608482015260a4016109d8565b5f816007811115610c4f57610c4f613ba6565b03610ce85760405162461bcd60e51b815260206004820152605960248201527f476f7665726e6f72427261766f3a3a70726f706f73653a206f6e65206c69766560448201527f2070726f706f73616c207065722070726f706f7365722c20666f756e6420616e60648201527f20616c72656164792070656e64696e672070726f706f73616c00000000000000608482015260a4016109d8565b505b60648310158015610cfe575062013b008311155b610d705760405162461bcd60e51b815260206004820152602d60248201527f476f7665726e6f72427261766f3a3a70726f706f73653a20696e76616c69642060448201527f766f74696e6720706572696f640000000000000000000000000000000000000060648201526084016109d8565b5f610d7b4386612972565b90505f610d888286612972565b600f80549192505f610d9983613de3565b9091555050600f545f81815260126020908152604082209283556001830180546001600160a01b0319163317905560028301919091558c51610de3916003840191908f0190613356565b508a51610df990600483019060208e01906133b9565b508951610e0f90600583019060208d01906133f2565b508851610e2590600683019060208c0190613442565b5060078101839055600881018290556009810180547fffffffffffffffff000000000000000000000000000000000000000000000000169055610e675f6129d7565b600f545f90815260146020526040812091909155610e84906129d7565b600f545f90815260146020526040812060010191909155610ea4906129d7565b600f80545f9081526014602052604080822060020193909355905481522054610ecd90306129e3565b6009810180547fffffffffffff0000ffffffffffffffffffffffffffffffffffffffffffffffff169055600a8101610f058982613e46565b50805460018201546001600160a01b03165f90815260156020526040908190208290556007830154600884015491517f7d84a6263ae0d98d3329bd7b46bb4e8d6f98cd35a7adb45c274c8b7fd5ebd5e093610f7d93909233926003880192600489019260058a019260068b019290600a8c0190613ffa565b60405180910390a180546040519081527f0be4c1bb8025507ee83837983136172e2ec904fc21df8ed515792214455cf3149060200160405180910390a1549b9a5050505050505050505050565b5f818152601360205260409020546060908067ffffffffffffffff811115610ff457610ff46135fd565b60405190808252806020026020018201604052801561101d578160200160208202803683370190505b5091505f5b81811015611096575f848152601360205260409020805482908110611049576110496140c4565b905f5260205f20015f9054906101000a90046001600160a01b0316838281518110611076576110766140c4565b6001600160a01b0390921660209283029190910190910152600101611022565b5050919050565b6010546001600160a01b03161561111c5760405162461bcd60e51b815260206004820152603360248201527f476f7665726e6f72427261766f3a3a696e697469616c697a653a2063616e206f60448201527f6e6c7920696e697469616c697a65206f6e63650000000000000000000000000060648201526084016109d8565b600a546001600160a01b0316331461119c5760405162461bcd60e51b815260206004820152602560248201527f476f7665726e6f72427261766f3a3a696e697469616c697a653a2061646d696e60448201527f206f6e6c7900000000000000000000000000000000000000000000000000000060648201526084016109d8565b6001600160a01b0383166112185760405162461bcd60e51b815260206004820152603360248201527f476f7665726e6f72427261766f3a3a696e697469616c697a653a20696e76616c60448201527f69642074696d656c6f636b20616464726573730000000000000000000000000060648201526084016109d8565b6001600160a01b0382166112945760405162461bcd60e51b815260206004820152602e60248201527f476f7665726e6f72427261766f3a3a696e697469616c697a653a20696e76616c60448201527f696420756e69206164647265737300000000000000000000000000000000000060648201526084016109d8565b64174876e80081111561130f5760405162461bcd60e51b815260206004820152603560248201527f476f7665726e6f72427261766f3a3a696e697469616c697a653a20696e76616c60448201527f69642070726f706f73616c207468726573686f6c64000000000000000000000060648201526084016109d8565b601080546001600160a01b039485166001600160a01b0319918216179091556011805493909416921691909117909155600d55565b600a546001600160a01b031633146113c45760405162461bcd60e51b815260206004820152603060248201527f476f7665726e6f72427261766f3a3a5f73657450726f706f73616c546872657360448201527f686f6c643a2061646d696e206f6e6c790000000000000000000000000000000060648201526084016109d8565b64174876e800811115611441576040805162461bcd60e51b81526020600482015260248101919091527f476f7665726e6f72427261766f3a3a5f73657450726f706f73616c546872657360448201527f686f6c643a20696e76616c69642070726f706f73616c207468726573686f6c6460648201526084016109d8565b600d80549082905560408051828152602081018490527fccb45da8d5717e6c4544694297c4ba5cf151d455c9bb0ed4fc7a38411bc0546191015b60405180910390a15050565b337fb5be75f70e63784f2916c7e1723fef45e81f42462e05d174b7d4f16be66ef19d836114b58382866129f1565b6040805192835267ffffffffffffffff909116602083015260609082018190525f9082015260800160405180910390a25050565b6060806060805f60125f8781526020019081526020015f209050806003018160040182600501836006018380548060200260200160405190810160405280929190818152602001828054801561156657602002820191905f5260205f20905b81546001600160a01b03168152600190910190602001808311611548575b50505050509350828054806020026020016040519081016040528092919081815260200182805480156115b657602002820191905f5260205f20905b8154815260200190600101908083116115a2575b5050505050925081805480602002602001604051908101604052809291908181526020015f905b82821015611685578382905f5260205f200180546115fa90613d82565b80601f016020809104026020016040519081016040528092919081815260200182805461162690613d82565b80156116715780601f1061164857610100808354040283529160200191611671565b820191905f5260205f20905b81548152906001019060200180831161165457829003601f168201915b5050505050815260200190600101906115dd565b50505050915080805480602002602001604051908101604052809291908181526020015f905b82821015611753578382905f5260205f200180546116c890613d82565b80601f01602080910402602001604051908101604052809291908181526020018280546116f490613d82565b801561173f5780601f106117165761010080835404028352916020019161173f565b820191905f5260205f20905b81548152906001019060200180831161172257829003601f168201915b5050505050815260200190600101906116ab565b5050505090509450945094509450509193509193565b5f81600f5410156117e25760405162461bcd60e51b815260206004820152602960248201527f476f7665726e6f72427261766f3a3a73746174653a20696e76616c696420707260448201527f6f706f73616c206964000000000000000000000000000000000000000000000060648201526084016109d8565b5f8281526012602052604090206009810154600160c01b900460ff161561180c5750600292915050565b8060070154431161181f57505f92915050565b806008015443116118335750600192915050565b600981015467ffffffffffffffff6801000000000000000082048116911611158061185b57505f5b156118695750600392915050565b80600201545f0361187d5750600492915050565b6009810154600160c81b900460ff161561189a5750600792915050565b6002810154601054604080516360d143f160e11b8152905161191293926001600160a01b03169163c1a287e29160048083019260209291908290030181865afa1580156118e9573d5f803e3d5ffd5b505050506040513d601f19601f8201168201806040525081019061190d91906140d8565b612972565b42106119215750600692915050565b50600592915050565b50919050565b600761193b82611769565b600781111561194c5761194c613ba6565b036119bf5760405162461bcd60e51b815260206004820152603660248201527f476f7665726e6f72427261766f3a3a63616e63656c3a2063616e6e6f7420636160448201527f6e63656c2065786563757465642070726f706f73616c0000000000000000000060648201526084016109d8565b5f81815260126020526040902060018101546001600160a01b0316331480611a615750600d5460115460018301546040516370a0823160e01b81526001600160a01b0391821660048201529116906370a0823190602401602060405180830381865afa158015611a31573d5f803e3d5ffd5b505050506040513d601f19601f82011682018060405250810190611a559190613db4565b67ffffffffffffffff16105b611ad35760405162461bcd60e51b815260206004820152602f60248201527f476f7665726e6f72427261766f3a3a63616e63656c3a2070726f706f7365722060448201527f61626f7665207468726573686f6c64000000000000000000000000000000000060648201526084016109d8565b6009810180547fffffffffffffff00ffffffffffffffffffffffffffffffffffffffffffffffff16600160c01b1790555f5b6003820154811015611c0b576010546003830180546001600160a01b039092169163591fcdfe919084908110611b3d57611b3d6140c4565b5f918252602090912001546004850180546001600160a01b039092169185908110611b6a57611b6a6140c4565b905f5260205f200154856005018581548110611b8857611b886140c4565b905f5260205f2001866006018681548110611ba557611ba56140c4565b905f5260205f200187600201546040518663ffffffff1660e01b8152600401611bd29594939291906140ef565b5f604051808303815f87803b158015611be9575f80fd5b505af1158015611bfb573d5f803e3d5ffd5b505060019092019150611b059050565b506040518281527f789cf55be980739dad1d0699b93b58e806b51c9d96619bfa8fe0a28abaa7b30c9060200161147b565b600a546001600160a01b03163314611ca25760405162461bcd60e51b8152602060048201526024808201527f476f7665726e6f72427261766f3a3a5f696e6974696174653a2061646d696e206044820152636f6e6c7960e01b60648201526084016109d8565b600e5415611d185760405162461bcd60e51b815260206004820152603060248201527f476f7665726e6f72427261766f3a3a5f696e6974696174653a2063616e206f6e60448201527f6c7920696e697469617465206f6e63650000000000000000000000000000000060648201526084016109d8565b600e55565b67ffffffffffffffff81165f90815260146020526040902060030154611dab5760405162461bcd60e51b815260206004820152603160248201527f476f7665726e6f72427261766f3a3a5f72657175657374446563727970743a2060448201527f6e6f20637420766f74657320657869737400000000000000000000000000000060648201526084016109d8565b60408051600480825260a082019092525f9160208201608080368337019050509050611de6611de38367ffffffffffffffff166129d7565b90565b815f81518110611df857611df86140c4565b60209081029190910181019190915267ffffffffffffffff83165f9081526014909152604090205481600181518110611e3357611e336140c4565b602002602001018181525050611e6460145f8467ffffffffffffffff1681526020019081526020015f206001015490565b81600281518110611e7757611e776140c4565b602002602001018181525050611ea860145f8467ffffffffffffffff1681526020019081526020015f206002015490565b81600381518110611ebb57611ebb6140c4565b6020908102919091010152611ee581635ec9ef1560e11b5f611edf426103e861413b565b5f612cc3565b505050565b611f2d8461047d8585858080601f0160208091040260200160405190810160405280939291908181526020018383808284375f92019190915250612db292505050565b50505050565b600a546001600160a01b03163314611fb35760405162461bcd60e51b815260206004820152602a60248201527f476f7665726e6f72427261766f3a5f73657450656e64696e6741646d696e3a2060448201527f61646d696e206f6e6c790000000000000000000000000000000000000000000060648201526084016109d8565b600b80546001600160a01b038381166001600160a01b031983168117909355604080519190921680825260208201939093527fca4f2f25d0898edd99413412fb94012f9e54ec8142f9b093e7720646a95b16a9910161147b565b3373c8c9303cd7f337fab769686b593b87dc3403e0ce1461202c575f80fd5b67ffffffffffffffff9384165f9081526012602052604090206009018054918516600160801b027fffffffffffffffff0000000000000000ffffffffffffffffffffffffffffffff93861668010000000000000000026fffffffffffffffffffffffffffffffff199093169490951693909317171691909117905550565b60046120b582611769565b60078111156120c6576120c6613ba6565b146121475760405162461bcd60e51b8152602060048201526044602482018190527f476f7665726e6f72427261766f3a3a71756575653a2070726f706f73616c2063908201527f616e206f6e6c79206265207175657565642069662069742069732073756363656064820152631959195960e21b608482015260a4016109d8565b5f8181526012602090815260408083206010548251630d48571f60e31b815292519194936121a39342936001600160a01b0390931692636a42b8f8926004808401939192918290030181865afa1580156118e9573d5f803e3d5ffd5b90505f5b60038301548110156123575761234f8360030182815481106121cb576121cb6140c4565b5f918252602090912001546004850180546001600160a01b0390921691849081106121f8576121f86140c4565b905f5260205f200154856005018481548110612216576122166140c4565b905f5260205f2001805461222990613d82565b80601f016020809104026020016040519081016040528092919081815260200182805461225590613d82565b80156122a05780601f10612277576101008083540402835291602001916122a0565b820191905f5260205f20905b81548152906001019060200180831161228357829003601f168201915b50505050508660060185815481106122ba576122ba6140c4565b905f5260205f200180546122cd90613d82565b80601f01602080910402602001604051908101604052809291908181526020018280546122f990613d82565b80156123445780601f1061231b57610100808354040283529160200191612344565b820191905f5260205f20905b81548152906001019060200180831161232757829003601f168201915b505050505086612dbf565b6001016121a7565b506002820181905560408051848152602081018390527f9a2e42fd6722813d69113e7d0079d3d940171428df7373df9c7f7617cfda2892910160405180910390a1505050565b60408051608080820183525f80835260208084018290528385018290526060938401829052868252601281528482206001600160a01b0387168352600b0181529084902084519283018552805460ff1615158352600181015491830191909152600281015467ffffffffffffffff1693820193909352600390920154908201525b92915050565b600b546001600160a01b03163314801561243d57503315155b6124af5760405162461bcd60e51b815260206004820152602e60248201527f476f7665726e6f72427261766f3a5f61636365707441646d696e3a2070656e6460448201527f696e672061646d696e206f6e6c7900000000000000000000000000000000000060648201526084016109d8565b600a8054600b80546001600160a01b038082166001600160a01b031980861682179096559490911690915560408051919092168082526020820184905292917ff9ffabca9c8276e99321725bcb43fb076a6c66a54b7f21c4e8146d8519b417dc910160405180910390a1600b54604080516001600160a01b03808516825290921660208301527fca4f2f25d0898edd99413412fb94012f9e54ec8142f9b093e7720646a95b16a9910161147b565b5f818152601360205260409020546060908067ffffffffffffffff811115612587576125876135fd565b6040519080825280602002602001820160405280156125d057816020015b604080516060810182525f80825260208083018290529282015282525f199092019101816125a55790505b5091505f5b81811015611096575f8481526013602052604081208054839081106125fc576125fc6140c4565b5f91825260208220015460405163711d4d2960e11b8152600481018890526001600160a01b03909116602482018190529250309063e23a9a5290604401608060405180830381865afa158015612654573d5f803e3d5ffd5b505050506040513d601f19601f82011682018060405250810190612678919061415d565b90508060200151858481518110612691576126916140c4565b60200260200101515f01818152505080604001518584815181106126b7576126b76140c4565b60200260200101516020019067ffffffffffffffff16908167ffffffffffffffff1681525050818584815181106126f0576126f06140c4565b60209081029190910101516001600160a01b0390911660409091015250506001016125d5565b600561272182611769565b600781111561273257612732613ba6565b146127cb5760405162461bcd60e51b815260206004820152604560248201527f476f7665726e6f72427261766f3a3a657865637574653a2070726f706f73616c60448201527f2063616e206f6e6c79206265206578656375746564206966206974206973207160648201527f7565756564000000000000000000000000000000000000000000000000000000608482015260a4016109d8565b5f8181526012602052604081206009810180547fffffffffffff00ffffffffffffffffffffffffffffffffffffffffffffffffff16600160c81b179055905b6003820154811015612941576010546004830180546001600160a01b0390921691630825f38f919084908110612842576128426140c4565b905f5260205f200154846003018481548110612860576128606140c4565b5f918252602090912001546004860180546001600160a01b03909216918690811061288d5761288d6140c4565b905f5260205f2001548660050186815481106128ab576128ab6140c4565b905f5260205f20018760060187815481106128c8576128c86140c4565b905f5260205f200188600201546040518763ffffffff1660e01b81526004016128f59594939291906140ef565b5f6040518083038185885af1158015612910573d5f803e3d5ffd5b50505050506040513d5f823e601f3d908101601f1916820160405261293891908101906141ce565b5060010161280a565b506040518281527f712ae1383f79ac853f8d882153778e0260ef8f03b504e2866e0593e04d2b291f9060200161147b565b5f8061297e838561413b565b9050838110156129d05760405162461bcd60e51b815260206004820152601160248201527f6164646974696f6e206f766572666c6f7700000000000000000000000000000060448201526064016109d8565b9392505050565b5f61241e826005612f79565b6129ed8282613002565b5050565b5f60016129fd84611769565b6007811115612a0e57612a0e613ba6565b14612a815760405162461bcd60e51b815260206004820152603160248201527f476f7665726e6f72427261766f3a3a63617374566f7465496e7465726e616c3a60448201527f20766f74696e6720697320636c6f73656400000000000000000000000000000060648201526084016109d8565b5f8381526012602090815260408083206001600160a01b0388168452600b8101909252909120805460ff1615612b1f5760405162461bcd60e51b815260206004820152603460248201527f476f7665726e6f72427261766f3a3a63617374566f7465496e7465726e616c3a60448201527f20766f74657220616c726561647920766f74656400000000000000000000000060648201526084016109d8565b6011546040516370a0823160e01b81526001600160a01b0388811660048301525f9216906370a0823190602401602060405180830381865afa158015612b67573d5f803e3d5ffd5b505050506040513d601f19601f82011682018060405250810190612b8b9190613db4565b5f8781526013602090815260408083208054600180820183559185528385200180546001600160a01b0319166001600160a01b038e161790558a84526014909252909120919250612bfe90612be190889061306d565b8254612bed9085613095565b8354612bf9905f613095565b6130bd565b808255612c0b90306129e3565b612c34612c18875f61306d565b612c26836001015485613095565b612bf984600101545f613095565b60018201819055612c4590306129e3565b612c6f612c5387600261306d565b612c61836002015485613095565b612bf984600201545f613095565b60028201819055612c8090306129e3565b43600391909101558154600160ff1990911681178355820194909455600201805467ffffffffffffffff191667ffffffffffffffff851617905550909392505050565b60405163155f840160e21b81525f90732fb4341027eb1d2ad8b5d9708187df8633cafa929063557e100490612cfc908990600401614237565b5f604051808303815f87803b158015612d13575f80fd5b505af1158015612d25573d5f803e3d5ffd5b5050604051634c0d927760e01b815273c8c9303cd7f337fab769686b593b87dc3403e0ce9250634c0d92779150612d689089908990899089908990600401614249565b6020604051808303815f875af1158015612d84573d5f803e3d5ffd5b505050506040513d601f19601f82011682018060405250810190612da891906140d8565b9695505050505050565b5f6129d0838360056130d1565b6010546040516001600160a01b039091169063f2b0653790612ded90889088908890889088906020016142a3565b604051602081830303815290604052805190602001206040518263ffffffff1660e01b8152600401612e2191815260200190565b602060405180830381865afa158015612e3c573d5f803e3d5ffd5b505050506040513d601f19601f82011682018060405250810190612e6091906142dc565b15612ef95760405162461bcd60e51b815260206004820152605560248201527f476f7665726e6f72427261766f3a3a71756575654f72526576657274496e746560448201527f726e616c3a206964656e746963616c2070726f706f73616c20616374696f6e2060648201527f616c726561647920717565756564206174206574610000000000000000000000608482015260a4016109d8565b601054604051633a66f90160e01b81526001600160a01b0390911690633a66f90190612f3190889088908890889088906004016142a3565b6020604051808303815f875af1158015612f4d573d5f803e3d5ffd5b505050506040513d601f19601f82011682018060405250810190612f7191906140d8565b505050505050565b604051631ce2e8d760e31b8152600481018390526001600160f81b031960f883901b1660248201525f907305fd9b5efe0a996095f42ed7e77c390810cf660c9063e71746b8906044016020604051808303815f875af1158015612fde573d5f803e3d5ffd5b505050506040513d601f19601f820116820180604052508101906129d091906140d8565b604051631974142760e21b8152600481018390526001600160a01b0382166024820152732fb4341027eb1d2ad8b5d9708187df8633cafa92906365d0509c906044015f604051808303815f87803b15801561305b575f80fd5b505af1158015612f71573d5f803e3d5ffd5b5f8261307f5761307c5f6129d7565b92505b6129d0838367ffffffffffffffff1660016131c4565b5f826130a7576130a45f6129d7565b92505b6129d0838367ffffffffffffffff16600161326e565b5f6130c98484846132d3565b949350505050565b6040516302e817ff60e41b81525f907305fd9b5efe0a996095f42ed7e77c390810cf660c90632e817ff0906131149087903390889060f889901b906004016142f5565b6020604051808303815f875af1158015613130573d5f803e3d5ffd5b505050506040513d601f19601f8201168201806040525081019061315491906140d8565b6040516346ce4e4960e11b815260048101829052336024820152909150732fb4341027eb1d2ad8b5d9708187df8633cafa9290638d9c9c92906044015f604051808303815f87803b1580156131a7575f80fd5b505af11580156131b9573d5f803e3d5ffd5b505050509392505050565b5f8082156131d75750600160f81b6131da565b505f5b604051630d7c62eb60e31b815260048101869052602481018590526001600160f81b0319821660448201527305fd9b5efe0a996095f42ed7e77c390810cf660c90636be31758906064015b6020604051808303815f875af1158015613241573d5f803e3d5ffd5b505050506040513d601f19601f8201168201806040525081019061326591906140d8565b95945050505050565b5f8082156132815750600160f81b613284565b505f5b60405163f953e42760e01b815260048101869052602481018590526001600160f81b0319821660448201527305fd9b5efe0a996095f42ed7e77c390810cf660c9063f953e42790606401613225565b60405163cb3b940760e01b81526004810184905260248101839052604481018290525f907305fd9b5efe0a996095f42ed7e77c390810cf660c9063cb3b9407906064016020604051808303815f875af1158015613332573d5f803e3d5ffd5b505050506040513d601f19601f820116820180604052508101906130c991906140d8565b828054828255905f5260205f209081019282156133a9579160200282015b828111156133a957825182546001600160a01b0319166001600160a01b03909116178255602090920191600190910190613374565b506133b5929150613492565b5090565b828054828255905f5260205f209081019282156133a9579160200282015b828111156133a95782518255916020019190600101906133d7565b828054828255905f5260205f20908101928215613436579160200282015b8281111561343657825182906134269082613e46565b5091602001919060010190613410565b506133b59291506134a6565b828054828255905f5260205f20908101928215613486579160200282015b8281111561348657825182906134769082613e46565b5091602001919060010190613460565b506133b59291506134c2565b5b808211156133b5575f8155600101613493565b808211156133b5575f6134b982826134de565b506001016134a6565b808211156133b5575f6134d582826134de565b506001016134c2565b5080546134ea90613d82565b5f825580601f106134f9575050565b601f0160209004905f5260205f20908101906135159190613492565b50565b5f60208284031215613528575f80fd5b5035919050565b5f5b83811015613549578181015183820152602001613531565b50505f910152565b5f815180845261356881602086016020860161352f565b601f01601f19169290920160200192915050565b5f6101608d83526001600160a01b038d1660208401528b60408401528a606084015289608084015267ffffffffffffffff808a1660a085015280891660c085015280881660e085015250851515610100840152841515610120840152806101408401526135eb81840185613551565b9e9d5050505050505050505050505050565b634e487b7160e01b5f52604160045260245ffd5b604051601f8201601f1916810167ffffffffffffffff8111828210171561363a5761363a6135fd565b604052919050565b5f67ffffffffffffffff82111561365b5761365b6135fd565b5060051b60200190565b80356001600160a01b038116811461367b575f80fd5b919050565b5f82601f83011261368f575f80fd5b813560206136a461369f83613642565b613611565b8083825260208201915060208460051b8701019350868411156136c5575f80fd5b602086015b848110156136e8576136db81613665565b83529183019183016136ca565b509695505050505050565b5f82601f830112613702575f80fd5b8135602061371261369f83613642565b8083825260208201915060208460051b870101935086841115613733575f80fd5b602086015b848110156136e85780358352918301918301613738565b5f67ffffffffffffffff821115613768576137686135fd565b50601f01601f191660200190565b5f61378361369f8461374f565b9050828152838383011115613796575f80fd5b828260208301375f602084830101529392505050565b5f82601f8301126137bb575f80fd5b6129d083833560208501613776565b5f82601f8301126137d9575f80fd5b813560206137e961369f83613642565b82815260059290921b84018101918181019086841115613807575f80fd5b8286015b848110156136e857803567ffffffffffffffff811115613829575f80fd5b6138378986838b01016137ac565b84525091830191830161380b565b5f82601f830112613854575f80fd5b8135602061386461369f83613642565b82815260059290921b84018101918181019086841115613882575f80fd5b8286015b848110156136e857803567ffffffffffffffff8111156138a4575f80fd5b8701603f810189136138b4575f80fd5b6138c5898683013560408401613776565b845250918301918301613886565b5f805f805f805f60e0888a0312156138e9575f80fd5b873567ffffffffffffffff80821115613900575f80fd5b61390c8b838c01613680565b985060208a0135915080821115613921575f80fd5b61392d8b838c016136f3565b975060408a0135915080821115613942575f80fd5b61394e8b838c016137ca565b965060608a0135915080821115613963575f80fd5b61396f8b838c01613845565b955060808a0135915080821115613984575f80fd5b506139918a828b016137ac565b93505060a0880135915060c0880135905092959891949750929550565b602081525f6129d06020830184613551565b5f815180845260208085019450602084015f5b838110156139f85781516001600160a01b0316875295820195908201906001016139d3565b509495945050505050565b602081525f6129d060208301846139c0565b5f805f60608486031215613a27575f80fd5b613a3084613665565b9250613a3e60208501613665565b9150604084013590509250925092565b5f60208284031215613a5e575f80fd5b6129d082613665565b5f8060408385031215613a78575f80fd5b50508035926020909101359150565b5f815180845260208085019450602084015f5b838110156139f857815187529582019590820190600101613a9a565b5f8282518085526020808601955060208260051b840101602086015f5b84811015613b0157601f19868403018952613aef838351613551565b98840198925090830190600101613ad3565b5090979650505050505050565b608081525f613b2060808301876139c0565b602083820381850152613b338288613a87565b915083820360408501528186518084528284019150828160051b8501018389015f5b83811015613b8357601f19878403018552613b71838351613551565b94860194925090850190600101613b55565b50508681036060880152613b978189613ab6565b9b9a5050505050505050505050565b634e487b7160e01b5f52602160045260245ffd5b6020810160088310613bda57634e487b7160e01b5f52602160045260245ffd5b91905290565b67ffffffffffffffff81168114613515575f80fd5b5f60208284031215613c05575f80fd5b81356129d081613be0565b5f805f8060608587031215613c23575f80fd5b8435935060208501359250604085013567ffffffffffffffff80821115613c48575f80fd5b818701915087601f830112613c5b575f80fd5b813581811115613c69575f80fd5b886020828501011115613c7a575f80fd5b95989497505060200194505050565b5f805f805f60a08688031215613c9d575f80fd5b853594506020860135613caf81613be0565b93506040860135613cbf81613be0565b92506060860135613ccf81613be0565b91506080860135613cdf81613be0565b809150509295509295909350565b5f8060408385031215613cfe575f80fd5b82359150613d0e60208401613665565b90509250929050565b602080825282518282018190525f919060409081850190868401855b82811015613d75578151805185528681015167ffffffffffffffff16878601528501516001600160a01b03168585015260609093019290850190600101613d33565b5091979650505050505050565b600181811c90821680613d9657607f821691505b60208210810361192a57634e487b7160e01b5f52602260045260245ffd5b5f60208284031215613dc4575f80fd5b81516129d081613be0565b634e487b7160e01b5f52601160045260245ffd5b5f60018201613df457613df4613dcf565b5060010190565b601f821115611ee557805f5260205f20601f840160051c81016020851015613e205750805b601f840160051c820191505b81811015613e3f575f8155600101613e2c565b5050505050565b815167ffffffffffffffff811115613e6057613e606135fd565b613e7481613e6e8454613d82565b84613dfb565b602080601f831160018114613ea7575f8415613e905750858301515b5f19600386901b1c1916600185901b178555612f71565b5f85815260208120601f198616915b82811015613ed557888601518255948401946001909101908401613eb6565b5085821015613ef257878501515f19600388901b60f8161c191681555b5050505050600190811b01905550565b5f815480845260208085019450835f5260205f205f5b838110156139f857815487529582019560019182019101613f18565b5f8154613f4081613d82565b808552602060018381168015613f5d5760018114613f7757613fa2565b60ff1985168884015283151560051b880183019550613fa2565b865f52825f205f5b85811015613f9a5781548a8201860152908301908401613f7f565b890184019650505b505050505092915050565b5f8282548085526020808601955060208260051b840101855f5260205f205f5b84811015613b0157858303601f19018952613fe88383613f34565b98840198925060019182019101613fcd565b5f6101208083018c845260206001600160a01b03808e1660208701528360408701528293508c54808452610140870194508d5f5260205f2093505f5b81811015614054578454831686529483019460019485019401614036565b5050505050828103606084015261406b818a613f02565b9050828103608084015261407f8189613fad565b905082810360a08401526140938188613fad565b90508560c08401528460e08401528281036101008401526140b48185613f34565b9c9b505050505050505050505050565b634e487b7160e01b5f52603260045260245ffd5b5f602082840312156140e8575f80fd5b5051919050565b6001600160a01b038616815284602082015260a060408201525f61411660a0830186613f34565b82810360608401526141288186613f34565b9150508260808301529695505050505050565b8082018082111561241e5761241e613dcf565b8051801515811461367b575f80fd5b5f6080828403121561416d575f80fd5b6040516080810181811067ffffffffffffffff82111715614190576141906135fd565b60405261419c8361414e565b81526020830151602082015260408301516141b681613be0565b60408201526060928301519281019290925250919050565b5f602082840312156141de575f80fd5b815167ffffffffffffffff8111156141f4575f80fd5b8201601f81018413614204575f80fd5b805161421261369f8261374f565b818152856020838501011115614226575f80fd5b61326582602083016020860161352f565b602081525f6129d06020830184613a87565b60a081525f61425b60a0830188613a87565b7fffffffff0000000000000000000000000000000000000000000000000000000096909616602083015250604081019390935260608301919091521515608090910152919050565b6001600160a01b038616815284602082015260a060408201525f6142ca60a0830186613551565b82810360608401526141288186613551565b5f602082840312156142ec575f80fd5b6129d08261414e565b8481526001600160a01b0384166020820152608060408201525f61431c6080830185613551565b905060ff60f81b831660608301529594505050505056fea164736f6c6343000818000a",
  "linkReferences": {},
  "deployedLinkReferences": {}
}