{
  "_format": "hh-sol-artifact-1",
  "contractName": "FHEGovernor",
  "sourceName": "contracts/fhe/FHEGovernor.sol",
  "abi": [
    {
      "inputs": [],
      "stateMutability": "nonpayable",
      "type": "constructor"
    },
    {
      "anonymous": false,
      "inputs": [
        {
          "indexed": false,
          "internalType": "uint256",
          "name": "proposeId",
          "type": "uint256"
        }
      ],
      "name": "LogPropose",
      "type": "event"
    },
    {
      "anonymous": false,
      "inputs": [
        {
          "indexed": false,
          "internalType": "address",
          "name": "oldAdmin",
          "type": "address"
        },
        {
          "indexed": false,
          "internalType": "address",
          "name": "newAdmin",
          "type": "address"
        }
      ],
      "name": "NewAdmin",
      "type": "event"
    },
    {
      "anonymous": false,
      "inputs": [
        {
          "indexed": false,
          "internalType": "address",
          "name": "oldImplementation",
          "type": "address"
        },
        {
          "indexed": false,
          "internalType": "address",
          "name": "newImplementation",
          "type": "address"
        }
      ],
      "name": "NewImplementation",
      "type": "event"
    },
    {
      "anonymous": false,
      "inputs": [
        {
          "indexed": false,
          "internalType": "address",
          "name": "oldPendingAdmin",
          "type": "address"
        },
        {
          "indexed": false,
          "internalType": "address",
          "name": "newPendingAdmin",
          "type": "address"
        }
      ],
      "name": "NewPendingAdmin",
      "type": "event"
    },
    {
      "anonymous": false,
      "inputs": [
        {
          "indexed": false,
          "internalType": "uint256",
          "name": "id",
          "type": "uint256"
        }
      ],
      "name": "ProposalCanceled",
      "type": "event"
    },
    {
      "anonymous": false,
      "inputs": [
        {
          "indexed": false,
          "internalType": "uint256",
          "name": "id",
          "type": "uint256"
        },
        {
          "indexed": false,
          "internalType": "address",
          "name": "proposer",
          "type": "address"
        },
        {
          "indexed": false,
          "internalType": "address[]",
          "name": "targets",
          "type": "address[]"
        },
        {
          "indexed": false,
          "internalType": "uint256[]",
          "name": "values",
          "type": "uint256[]"
        },
        {
          "indexed": false,
          "internalType": "string[]",
          "name": "signatures",
          "type": "string[]"
        },
        {
          "indexed": false,
          "internalType": "bytes[]",
          "name": "calldatas",
          "type": "bytes[]"
        },
        {
          "indexed": false,
          "internalType": "uint256",
          "name": "startBlock",
          "type": "uint256"
        },
        {
          "indexed": false,
          "internalType": "uint256",
          "name": "endBlock",
          "type": "uint256"
        },
        {
          "indexed": false,
          "internalType": "string",
          "name": "description",
          "type": "string"
        }
      ],
      "name": "ProposalCreated",
      "type": "event"
    },
    {
      "anonymous": false,
      "inputs": [
        {
          "indexed": false,
          "internalType": "uint256",
          "name": "id",
          "type": "uint256"
        }
      ],
      "name": "ProposalExecuted",
      "type": "event"
    },
    {
      "anonymous": false,
      "inputs": [
        {
          "indexed": false,
          "internalType": "uint256",
          "name": "id",
          "type": "uint256"
        },
        {
          "indexed": false,
          "internalType": "uint256",
          "name": "eta",
          "type": "uint256"
        }
      ],
      "name": "ProposalQueued",
      "type": "event"
    },
    {
      "anonymous": false,
      "inputs": [
        {
          "indexed": false,
          "internalType": "uint256",
          "name": "oldProposalThreshold",
          "type": "uint256"
        },
        {
          "indexed": false,
          "internalType": "uint256",
          "name": "newProposalThreshold",
          "type": "uint256"
        }
      ],
      "name": "ProposalThresholdSet",
      "type": "event"
    },
    {
      "anonymous": false,
      "inputs": [
        {
          "indexed": true,
          "internalType": "address",
          "name": "voter",
          "type": "address"
        },
        {
          "indexed": false,
          "internalType": "uint256",
          "name": "proposalId",
          "type": "uint256"
        },
        {
          "indexed": false,
          "internalType": "uint64",
          "name": "votes",
          "type": "uint64"
        },
        {
          "indexed": false,
          "internalType": "string",
          "name": "reason",
          "type": "string"
        }
      ],
      "name": "VoteCast",
      "type": "event"
    },
    {
      "anonymous": false,
      "inputs": [
        {
          "indexed": false,
          "internalType": "uint256",
          "name": "oldVotingDelay",
          "type": "uint256"
        },
        {
          "indexed": false,
          "internalType": "uint256",
          "name": "newVotingDelay",
          "type": "uint256"
        }
      ],
      "name": "VotingDelaySet",
      "type": "event"
    },
    {
      "anonymous": false,
      "inputs": [
        {
          "indexed": false,
          "internalType": "uint256",
          "name": "oldVotingPeriod",
          "type": "uint256"
        },
        {
          "indexed": false,
          "internalType": "uint256",
          "name": "newVotingPeriod",
          "type": "uint256"
        }
      ],
      "name": "VotingPeriodSet",
      "type": "event"
    },
    {
      "inputs": [],
      "name": "MAX_PROPOSAL_THRESHOLD",
      "outputs": [
        {
          "internalType": "uint256",
          "name": "",
          "type": "uint256"
        }
      ],
      "stateMutability": "view",
      "type": "function"
    },
    {
      "inputs": [],
      "name": "MAX_VOTING_DELAY",
      "outputs": [
        {
          "internalType": "uint256",
          "name": "",
          "type": "uint256"
        }
      ],
      "stateMutability": "view",
      "type": "function"
    },
    {
      "inputs": [],
      "name": "MAX_VOTING_PERIOD",
      "outputs": [
        {
          "internalType": "uint256",
          "name": "",
          "type": "uint256"
        }
      ],
      "stateMutability": "view",
      "type": "function"
    },
    {
      "inputs": [],
      "name": "MIN_PROPOSAL_THRESHOLD",
      "outputs": [
        {
          "internalType": "uint256",
          "name": "",
          "type": "uint256"
        }
      ],
      "stateMutability": "view",
      "type": "function"
    },
    {
      "inputs": [],
      "name": "MIN_VOTING_DELAY",
      "outputs": [
        {
          "internalType": "uint256",
          "name": "",
          "type": "uint256"
        }
      ],
      "stateMutability": "view",
      "type": "function"
    },
    {
      "inputs": [],
      "name": "MIN_VOTING_PERIOD",
      "outputs": [
        {
          "internalType": "uint256",
          "name": "",
          "type": "uint256"
        }
      ],
      "stateMutability": "view",
      "type": "function"
    },
    {
      "inputs": [],
      "name": "_acceptAdmin",
      "outputs": [],
      "stateMutability": "nonpayable",
      "type": "function"
    },
    {
      "inputs": [
        {
          "internalType": "uint256",
          "name": "proposalCount",
          "type": "uint256"
        }
      ],
      "name": "_initiate",
      "outputs": [],
      "stateMutability": "nonpayable",
      "type": "function"
    },
    {
      "inputs": [
        {
          "internalType": "uint64",
          "name": "proposalId",
          "type": "uint64"
        }
      ],
      "name": "_requestDecrypt",
      "outputs": [],
      "stateMutability": "nonpayable",
      "type": "function"
    },
    {
      "inputs": [
        {
          "internalType": "address",
          "name": "newPendingAdmin",
          "type": "address"
        }
      ],
      "name": "_setPendingAdmin",
      "outputs": [],
      "stateMutability": "nonpayable",
      "type": "function"
    },
    {
      "inputs": [
        {
          "internalType": "uint256",
          "name": "newProposalThreshold",
          "type": "uint256"
        }
      ],
      "name": "_setProposalThreshold",
      "outputs": [],
      "stateMutability": "nonpayable",
      "type": "function"
    },
    {
      "inputs": [],
      "name": "admin",
      "outputs": [
        {
          "internalType": "address",
          "name": "",
          "type": "address"
        }
      ],
      "stateMutability": "view",
      "type": "function"
    },
    {
      "inputs": [
        {
          "internalType": "uint256",
          "name": "proposalId",
          "type": "uint256"
        }
      ],
      "name": "cancel",
      "outputs": [],
      "stateMutability": "nonpayable",
      "type": "function"
    },
    {
      "inputs": [
        {
          "internalType": "uint256",
          "name": "proposalId",
          "type": "uint256"
        },
        {
          "internalType": "gtUint64",
          "name": "support",
          "type": "uint256"
        }
      ],
      "name": "castVote",
      "outputs": [],
      "stateMutability": "nonpayable",
      "type": "function"
    },
    {
      "inputs": [
        {
          "internalType": "uint256",
          "name": "proposalId",
          "type": "uint256"
        },
        {
          "internalType": "ctUint64",
          "name": "_itCT",
          "type": "uint256"
        },
        {
          "internalType": "bytes",
          "name": "_itSignature",
          "type": "bytes"
        }
      ],
      "name": "castVoteByProof",
      "outputs": [],
      "stateMutability": "nonpayable",
      "type": "function"
    },
    {
      "inputs": [],
      "name": "chainId",
      "outputs": [
        {
          "internalType": "uint256",
          "name": "",
          "type": "uint256"
        }
      ],
      "stateMutability": "view",
      "type": "function"
    },
    {
      "inputs": [
        {
          "internalType": "uint256",
          "name": "proposalId",
          "type": "uint256"
        }
      ],
      "name": "execute",
      "outputs": [],
      "stateMutability": "payable",
      "type": "function"
    },
    {
      "inputs": [
        {
          "internalType": "uint256",
          "name": "proposalId",
          "type": "uint256"
        }
      ],
      "name": "getActions",
      "outputs": [
        {
          "internalType": "address[]",
          "name": "targets",
          "type": "address[]"
        },
        {
          "internalType": "uint256[]",
          "name": "values",
          "type": "uint256[]"
        },
        {
          "internalType": "string[]",
          "name": "signatures",
          "type": "string[]"
        },
        {
          "internalType": "bytes[]",
          "name": "calldatas",
          "type": "bytes[]"
        }
      ],
      "stateMutability": "view",
      "type": "function"
    },
    {
      "inputs": [
        {
          "internalType": "uint256",
          "name": "proposalId",
          "type": "uint256"
        }
      ],
      "name": "getProposalReceipts",
      "outputs": [
        {
          "components": [
            {
              "internalType": "ctUint64",
              "name": "support",
              "type": "uint256"
            },
            {
              "internalType": "uint64",
              "name": "votes",
              "type": "uint64"
            },
            {
              "internalType": "address",
              "name": "voter",
              "type": "address"
            }
          ],
          "internalType": "struct GovernorBravoDelegateStorageV1.OutReceipt[]",
          "name": "out",
          "type": "tuple[]"
        }
      ],
      "stateMutability": "view",
      "type": "function"
    },
    {
      "inputs": [
        {
          "internalType": "uint256",
          "name": "proposalId",
          "type": "uint256"
        },
        {
          "internalType": "address",
          "name": "voter",
          "type": "address"
        }
      ],
      "name": "getReceipt",
      "outputs": [
        {
          "components": [
            {
              "internalType": "bool",
              "name": "hasVoted",
              "type": "bool"
            },
            {
              "internalType": "ctUint64",
              "name": "support",
              "type": "uint256"
            },
            {
              "internalType": "uint64",
              "name": "votes",
              "type": "uint64"
            },
            {
              "internalType": "bytes32",
              "name": "txhash",
              "type": "bytes32"
            }
          ],
          "internalType": "struct GovernorBravoDelegateStorageV1.Receipt",
          "name": "",
          "type": "tuple"
        }
      ],
      "stateMutability": "view",
      "type": "function"
    },
    {
      "inputs": [
        {
          "internalType": "uint256",
          "name": "proposalId",
          "type": "uint256"
        }
      ],
      "name": "getVoteList",
      "outputs": [
        {
          "internalType": "address[]",
          "name": "list",
          "type": "address[]"
        }
      ],
      "stateMutability": "view",
      "type": "function"
    },
    {
      "inputs": [],
      "name": "implementation",
      "outputs": [
        {
          "internalType": "address",
          "name": "",
          "type": "address"
        }
      ],
      "stateMutability": "view",
      "type": "function"
    },
    {
      "inputs": [],
      "name": "initialProposalId",
      "outputs": [
        {
          "internalType": "uint256",
          "name": "",
          "type": "uint256"
        }
      ],
      "stateMutability": "view",
      "type": "function"
    },
    {
      "inputs": [
        {
          "internalType": "address",
          "name": "timelock_",
          "type": "address"
        },
        {
          "internalType": "address",
          "name": "uni_",
          "type": "address"
        },
        {
          "internalType": "uint256",
          "name": "proposalThreshold_",
          "type": "uint256"
        }
      ],
      "name": "initialize",
      "outputs": [],
      "stateMutability": "nonpayable",
      "type": "function"
    },
    {
      "inputs": [
        {
          "internalType": "address",
          "name": "",
          "type": "address"
        }
      ],
      "name": "latestProposalIds",
      "outputs": [
        {
          "internalType": "uint256",
          "name": "",
          "type": "uint256"
        }
      ],
      "stateMutability": "view",
      "type": "function"
    },
    {
      "inputs": [],
      "name": "name",
      "outputs": [
        {
          "internalType": "string",
          "name": "",
          "type": "string"
        }
      ],
      "stateMutability": "view",
      "type": "function"
    },
    {
      "inputs": [],
      "name": "pendingAdmin",
      "outputs": [
        {
          "internalType": "address",
          "name": "",
          "type": "address"
        }
      ],
      "stateMutability": "view",
      "type": "function"
    },
    {
      "inputs": [],
      "name": "proposalCount",
      "outputs": [
        {
          "internalType": "uint256",
          "name": "",
          "type": "uint256"
        }
      ],
      "stateMutability": "view",
      "type": "function"
    },
    {
      "inputs": [],
      "name": "proposalMaxOperations",
      "outputs": [
        {
          "internalType": "uint256",
          "name": "",
          "type": "uint256"
        }
      ],
      "stateMutability": "view",
      "type": "function"
    },
    {
      "inputs": [],
      "name": "proposalThreshold",
      "outputs": [
        {
          "internalType": "uint256",
          "name": "",
          "type": "uint256"
        }
      ],
      "stateMutability": "view",
      "type": "function"
    },
    {
      "inputs": [
        {
          "internalType": "uint256",
          "name": "",
          "type": "uint256"
        }
      ],
      "name": "proposals",
      "outputs": [
        {
          "internalType": "uint256",
          "name": "id",
          "type": "uint256"
        },
        {
          "internalType": "address",
          "name": "proposer",
          "type": "address"
        },
        {
          "internalType": "uint256",
          "name": "eta",
          "type": "uint256"
        },
        {
          "internalType": "uint256",
          "name": "startBlock",
          "type": "uint256"
        },
        {
          "internalType": "uint256",
          "name": "endBlock",
          "type": "uint256"
        },
        {
          "internalType": "uint64",
          "name": "forVotes",
          "type": "uint64"
        },
        {
          "internalType": "uint64",
          "name": "againstVotes",
          "type": "uint64"
        },
        {
          "internalType": "uint64",
          "name": "abstainVotes",
          "type": "uint64"
        },
        {
          "internalType": "bool",
          "name": "canceled",
          "type": "bool"
        },
        {
          "internalType": "bool",
          "name": "executed",
          "type": "bool"
        },
        {
          "internalType": "string",
          "name": "description",
          "type": "string"
        }
      ],
      "stateMutability": "view",
      "type": "function"
    },
    {
      "inputs": [
        {
          "internalType": "uint256",
          "name": "",
          "type": "uint256"
        }
      ],
      "name": "proposalsCurCTVotes",
      "outputs": [
        {
          "internalType": "ctUint64",
          "name": "forVotes",
          "type": "uint256"
        },
        {
          "internalType": "ctUint64",
          "name": "againstVotes",
          "type": "uint256"
        },
        {
          "internalType": "ctUint64",
          "name": "abstainVotes",
          "type": "uint256"
        },
        {
          "internalType": "uint256",
          "name": "blockHeight",
          "type": "uint256"
        }
      ],
      "stateMutability": "view",
      "type": "function"
    },
    {
      "inputs": [
        {
          "internalType": "address[]",
          "name": "targets",
          "type": "address[]"
        },
        {
          "internalType": "uint256[]",
          "name": "values",
          "type": "uint256[]"
        },
        {
          "internalType": "string[]",
          "name": "signatures",
          "type": "string[]"
        },
        {
          "internalType": "bytes[]",
          "name": "calldatas",
          "type": "bytes[]"
        },
        {
          "internalType": "string",
          "name": "description",
          "type": "string"
        },
        {
          "internalType": "uint256",
          "name": "votingDelay",
          "type": "uint256"
        },
        {
          "internalType": "uint256",
          "name": "votingPeriod",
          "type": "uint256"
        }
      ],
      "name": "propose",
      "outputs": [
        {
          "internalType": "uint256",
          "name": "",
          "type": "uint256"
        }
      ],
      "stateMutability": "nonpayable",
      "type": "function"
    },
    {
      "inputs": [
        {
          "internalType": "uint256",
          "name": "proposalId",
          "type": "uint256"
        }
      ],
      "name": "queue",
      "outputs": [],
      "stateMutability": "nonpayable",
      "type": "function"
    },
    {
      "inputs": [],
      "name": "quorumVotes",
      "outputs": [
        {
          "internalType": "uint256",
          "name": "",
          "type": "uint256"
        }
      ],
      "stateMutability": "view",
      "type": "function"
    },
    {
      "inputs": [
        {
          "internalType": "uint256",
          "name": "proposalId",
          "type": "uint256"
        }
      ],
      "name": "state",
      "outputs": [
        {
          "internalType": "enum GovernorBravoDelegateStorageV1.ProposalState",
          "name": "",
          "type": "uint8"
        }
      ],
      "stateMutability": "view",
      "type": "function"
    },
    {
      "inputs": [],
      "name": "timelock",
      "outputs": [
        {
          "internalType": "contract TimelockInterface",
          "name": "",
          "type": "address"
        }
      ],
      "stateMutability": "view",
      "type": "function"
    },
    {
      "inputs": [],
      "name": "uni",
      "outputs": [
        {
          "internalType": "contract UniInterface",
          "name": "",
          "type": "address"
        }
      ],
      "stateMutability": "view",
      "type": "function"
    }
  ],
  "bytecode": "0x608060405234801561001057600080fd5b50600080546001600160a01b0319163317905561406d806100326000396000f3fe6080604052600436106102855760003560e01c80635c60da1b11610153578063da35c664116100cb578063eb0338061161007f578063f851a44011610064578063f851a4401461079b578063fc4eee42146107bb578063fe0d94c1146107d157600080fd5b8063eb0338061461074e578063edc9af951461077b57600080fd5b8063e23a9a52116100b0578063e23a9a52146106c5578063e48083fe14610724578063e9c714f21461073957600080fd5b8063da35c6641461068f578063ddf0b009146106a557600080fd5b8063a64e024a11610122578063b58131b011610107578063b58131b014610639578063b71d1a0c1461064f578063d33219b41461066f57600080fd5b8063a64e024a1461060c578063b11262631461062357600080fd5b80635c60da1b146105c4578063791f5d231461041f5780637bdbe4d0146105e45780639a8a0592146105f957600080fd5b806324bc1a64116102015780633e4f49e6116101b557806350045b5f1161019a57806350045b5f14610522578063501b6ad314610584578063596c60c1146105a457600080fd5b80633e4f49e6146104d557806340e58ee51461050257600080fd5b806326782247116101e6578063267822471461044d5780632c0a3f8914610485578063328dd982146104a557600080fd5b806324bc1a641461041f57806325fd935a1461043457600080fd5b80630fdc11b51161025857806317977c611161023d57806317977c61146103bd57806317ba1b8b146103ea578063215809ca1461040a57600080fd5b80630fdc11b5146103705780631794bb3c1461039d57600080fd5b8063013cf08b1461028a578063039414b7146102ca578063055965dd146102f857806306fdde031461031a575b600080fd5b34801561029657600080fd5b506102aa6102a536600461328e565b6107e4565b6040516102c19b9a999897969594939291906132f7565b60405180910390f35b3480156102d657600080fd5b506102ea6102e536600461366b565b6108fe565b6040519081526020016102c1565b34801561030457600080fd5b50610318610313366004613750565b610fe6565b005b34801561032657600080fd5b506103636040518060400160405280601281526020017f46484520476f7665726e6f7220427261766f000000000000000000000000000081525081565b6040516102c191906137d0565b34801561037c57600080fd5b5061039061038b36600461328e565b61104b565b6040516102c19190613828565b3480156103a957600080fd5b506103186103b836600461383b565b611124565b3480156103c957600080fd5b506102ea6103d8366004613877565b600b6020526000908152604090205481565b3480156103f657600080fd5b5061031861040536600461328e565b6113cb565b34801561041657600080fd5b506102ea606481565b34801561042b57600080fd5b506102ea600081565b34801561044057600080fd5b506102ea64174876e80081565b34801561045957600080fd5b5060015461046d906001600160a01b031681565b6040516001600160a01b0390911681526020016102c1565b34801561049157600080fd5b506103186104a0366004613892565b61150e565b3480156104b157600080fd5b506104c56104c036600461328e565b611571565b6040516102c1949392919061390e565b3480156104e157600080fd5b506104f56104f036600461328e565b611802565b6040516102c191906139e2565b34801561050e57600080fd5b5061031861051d36600461328e565b6119d0565b34801561052e57600080fd5b5061056461053d36600461328e565b600a6020526000908152604090208054600182015460028301546003909301549192909184565b6040805194855260208501939093529183015260608201526080016102c1565b34801561059057600080fd5b5061031861059f36600461328e565b611cec565b3480156105b057600080fd5b506103186105bf366004613a20565b611dcd565b3480156105d057600080fd5b5060025461046d906001600160a01b031681565b3480156105f057600080fd5b506102ea600a81565b34801561060557600080fd5b50466102ea565b34801561061857600080fd5b506102ea62013b0081565b34801561062f57600080fd5b506102ea619d8081565b34801561064557600080fd5b506102ea60035481565b34801561065b57600080fd5b5061031861066a366004613877565b611ea8565b34801561067b57600080fd5b5060065461046d906001600160a01b031681565b34801561069b57600080fd5b506102ea60055481565b3480156106b157600080fd5b506103186106c036600461328e565b611f82565b3480156106d157600080fd5b506106e56106e0366004613a3d565b612284565b6040516102c191908151151581526020808301519082015260408083015167ffffffffffffffff16908201526060918201519181019190915260800190565b34801561073057600080fd5b506102ea600181565b34801561074557600080fd5b5061031861230c565b34801561075a57600080fd5b5061076e61076936600461328e565b612445565b6040516102c19190613a69565b34801561078757600080fd5b5060075461046d906001600160a01b031681565b3480156107a757600080fd5b5060005461046d906001600160a01b031681565b3480156107c757600080fd5b506102ea60045481565b6103186107df36600461328e565b612607565b60086020819052600091825260409091208054600182015460028301546007840154948401546009850154600a8601805495976001600160a01b03909516969395929367ffffffffffffffff8084169468010000000000000000850482169470010000000000000000000000000000000081049092169360ff600160c01b8404811694600160c81b90940416929161087b90613ad5565b80601f01602080910402602001604051908101604052809291908181526020018280546108a790613ad5565b80156108f45780601f106108c9576101008083540402835291602001916108f4565b820191906000526020600020905b8154815290600101906020018083116108d757829003601f168201915b505050505090508b565b6003546007546040516370a0823160e01b8152336004820152600092916001600160a01b0316906370a0823190602401602060405180830381865afa15801561094b573d6000803e3d6000fd5b505050506040513d601f19601f8201168201806040525081019061096f9190613b09565b67ffffffffffffffff16116109f15760405162461bcd60e51b815260206004820152603f60248201527f476f7665726e6f72427261766f3a3a70726f706f73653a2070726f706f73657260448201527f20766f7465732062656c6f772070726f706f73616c207468726573686f6c640060648201526084015b60405180910390fd5b86518851148015610a03575085518851145b8015610a10575084518851145b610a905760405162461bcd60e51b8152602060048201526044602482018190527f476f7665726e6f72427261766f3a3a70726f706f73653a2070726f706f73616c908201527f2066756e6374696f6e20696e666f726d6174696f6e206172697479206d69736d6064820152630c2e8c6d60e31b608482015260a4016109e8565b8751600003610b075760405162461bcd60e51b815260206004820152602c60248201527f476f7665726e6f72427261766f3a3a70726f706f73653a206d7573742070726f60448201527f7669646520616374696f6e73000000000000000000000000000000000000000060648201526084016109e8565b600a88511115610b7f5760405162461bcd60e51b815260206004820152602860248201527f476f7665726e6f72427261766f3a3a70726f706f73653a20746f6f206d616e7960448201527f20616374696f6e7300000000000000000000000000000000000000000000000060648201526084016109e8565b336000908152600b60205260409020548015610cfe576000610ba082611802565b90506001816007811115610bb657610bb66139cc565b03610c4f5760405162461bcd60e51b815260206004820152605860248201527f476f7665726e6f72427261766f3a3a70726f706f73653a206f6e65206c69766560448201527f2070726f706f73616c207065722070726f706f7365722c20666f756e6420616e60648201527f20616c7265616479206163746976652070726f706f73616c0000000000000000608482015260a4016109e8565b6000816007811115610c6357610c636139cc565b03610cfc5760405162461bcd60e51b815260206004820152605960248201527f476f7665726e6f72427261766f3a3a70726f706f73653a206f6e65206c69766560448201527f2070726f706f73616c207065722070726f706f7365722c20666f756e6420616e60648201527f20616c72656164792070656e64696e672070726f706f73616c00000000000000608482015260a4016109e8565b505b60648310158015610d12575062013b008311155b610d845760405162461bcd60e51b815260206004820152602d60248201527f476f7665726e6f72427261766f3a3a70726f706f73653a20696e76616c69642060448201527f766f74696e6720706572696f640000000000000000000000000000000000000060648201526084016109e8565b6000610d904386612871565b90506000610d9e8286612871565b600580549192506000610db083613b3c565b9091555050600554600081815260086020908152604082209283556001830180546001600160a01b0319163317905560028301919091558c51610dfb916003840191908f01906130be565b508a51610e1190600483019060208e0190613123565b508951610e2790600583019060208d019061315e565b508851610e3d90600683019060208c01906131b0565b5060078101839055600881018290556009810180547fffffffffffffffff000000000000000000000000000000000000000000000000169055610e88610e8360006128d7565b612951565b6005546000908152600a6020526040812091909155610eaa90610e83906128d7565b6005546000908152600a6020526040812060010191909155610ecf90610e83906128d7565b6005546000908152600a60208190526040909120600201919091556009820180547fffffffffffff0000ffffffffffffffffffffffffffffffffffffffffffffffff1690558101610f208982613ba2565b50805460018201546001600160a01b03166000908152600b6020526040908190208290556007830154600884015491517f7d84a6263ae0d98d3329bd7b46bb4e8d6f98cd35a7adb45c274c8b7fd5ebd5e093610f9993909233926003880192600489019260058a019260068b019290600a8c0190613d66565b60405180910390a180546040519081527f0be4c1bb8025507ee83837983136172e2ec904fc21df8ed515792214455cf3149060200160405180910390a1549b9a5050505050505050505050565b604080518082019091526000815260606020820152838152604080516020601f85018190048102820181019092528381529084908490819084018382808284376000920191909152505050506020820152611044856104a0836129ab565b5050505050565b6000818152600960205260409020546060908067ffffffffffffffff81111561107657611076613379565b60405190808252806020026020018201604052801561109f578160200160208202803683370190505b50915060005b8181101561111d5760008481526009602052604090208054829081106110cd576110cd613e34565b9060005260206000200160009054906101000a90046001600160a01b03168382815181106110fd576110fd613e34565b6001600160a01b03909216602092830291909101909101526001016110a5565b5050919050565b6006546001600160a01b0316156111a35760405162461bcd60e51b815260206004820152603360248201527f476f7665726e6f72427261766f3a3a696e697469616c697a653a2063616e206f60448201527f6e6c7920696e697469616c697a65206f6e63650000000000000000000000000060648201526084016109e8565b6000546001600160a01b031633146112235760405162461bcd60e51b815260206004820152602560248201527f476f7665726e6f72427261766f3a3a696e697469616c697a653a2061646d696e60448201527f206f6e6c7900000000000000000000000000000000000000000000000000000060648201526084016109e8565b6001600160a01b03831661129f5760405162461bcd60e51b815260206004820152603360248201527f476f7665726e6f72427261766f3a3a696e697469616c697a653a20696e76616c60448201527f69642074696d656c6f636b20616464726573730000000000000000000000000060648201526084016109e8565b6001600160a01b03821661131b5760405162461bcd60e51b815260206004820152602e60248201527f476f7665726e6f72427261766f3a3a696e697469616c697a653a20696e76616c60448201527f696420756e69206164647265737300000000000000000000000000000000000060648201526084016109e8565b64174876e8008111156113965760405162461bcd60e51b815260206004820152603560248201527f476f7665726e6f72427261766f3a3a696e697469616c697a653a20696e76616c60448201527f69642070726f706f73616c207468726573686f6c64000000000000000000000060648201526084016109e8565b600680546001600160a01b039485166001600160a01b0319918216179091556007805493909416921691909117909155600355565b6000546001600160a01b0316331461144b5760405162461bcd60e51b815260206004820152603060248201527f476f7665726e6f72427261766f3a3a5f73657450726f706f73616c546872657360448201527f686f6c643a2061646d696e206f6e6c790000000000000000000000000000000060648201526084016109e8565b64174876e8008111156114c8576040805162461bcd60e51b81526020600482015260248101919091527f476f7665726e6f72427261766f3a3a5f73657450726f706f73616c546872657360448201527f686f6c643a20696e76616c69642070726f706f73616c207468726573686f6c6460648201526084016109e8565b600380549082905560408051828152602081018490527fccb45da8d5717e6c4544694297c4ba5cf151d455c9bb0ed4fc7a38411bc0546191015b60405180910390a15050565b337fb5be75f70e63784f2916c7e1723fef45e81f42462e05d174b7d4f16be66ef19d8361153c8382866129df565b6040805192835267ffffffffffffffff9091166020830152606090820181905260009082015260800160405180910390a25050565b606080606080600060086000878152602001908152602001600020905080600301816004018260050183600601838054806020026020016040519081016040528092919081815260200182805480156115f357602002820191906000526020600020905b81546001600160a01b031681526001909101906020018083116115d5575b505050505093508280548060200260200160405190810160405280929190818152602001828054801561164557602002820191906000526020600020905b815481526020019060010190808311611631575b5050505050925081805480602002602001604051908101604052809291908181526020016000905b8282101561171957838290600052602060002001805461168c90613ad5565b80601f01602080910402602001604051908101604052809291908181526020018280546116b890613ad5565b80156117055780601f106116da57610100808354040283529160200191611705565b820191906000526020600020905b8154815290600101906020018083116116e857829003601f168201915b50505050508152602001906001019061166d565b50505050915080805480602002602001604051908101604052809291908181526020016000905b828210156117ec57838290600052602060002001805461175f90613ad5565b80601f016020809104026020016040519081016040528092919081815260200182805461178b90613ad5565b80156117d85780601f106117ad576101008083540402835291602001916117d8565b820191906000526020600020905b8154815290600101906020018083116117bb57829003601f168201915b505050505081526020019060010190611740565b5050505090509450945094509450509193509193565b600081600554101561187c5760405162461bcd60e51b815260206004820152602960248201527f476f7665726e6f72427261766f3a3a73746174653a20696e76616c696420707260448201527f6f706f73616c206964000000000000000000000000000000000000000000000060648201526084016109e8565b60008281526008602052604090206009810154600160c01b900460ff16156118a75750600292915050565b806007015443116118bb5750600092915050565b806008015443116118cf5750600192915050565b600981015467ffffffffffffffff680100000000000000008204811691161115806118f8575060005b156119065750600392915050565b806002015460000361191b5750600492915050565b6009810154600160c81b900460ff16156119385750600792915050565b6002810154600654604080516360d143f160e11b815290516119b293926001600160a01b03169163c1a287e29160048083019260209291908290030181865afa158015611989573d6000803e3d6000fd5b505050506040513d601f19601f820116820180604052508101906119ad9190613e4a565b612871565b42106119c15750600692915050565b50600592915050565b50919050565b60076119db82611802565b60078111156119ec576119ec6139cc565b03611a5f5760405162461bcd60e51b815260206004820152603660248201527f476f7665726e6f72427261766f3a3a63616e63656c3a2063616e6e6f7420636160448201527f6e63656c2065786563757465642070726f706f73616c0000000000000000000060648201526084016109e8565b600081815260086020526040902060018101546001600160a01b0316331480611b04575060035460075460018301546040516370a0823160e01b81526001600160a01b0391821660048201529116906370a0823190602401602060405180830381865afa158015611ad4573d6000803e3d6000fd5b505050506040513d601f19601f82011682018060405250810190611af89190613b09565b67ffffffffffffffff16105b611b765760405162461bcd60e51b815260206004820152602f60248201527f476f7665726e6f72427261766f3a3a63616e63656c3a2070726f706f7365722060448201527f61626f7665207468726573686f6c64000000000000000000000000000000000060648201526084016109e8565b6009810180547fffffffffffffff00ffffffffffffffffffffffffffffffffffffffffffffffff16600160c01b17905560005b6003820154811015611cbb576006546003830180546001600160a01b039092169163591fcdfe919084908110611be157611be1613e34565b6000918252602090912001546004850180546001600160a01b039092169185908110611c0f57611c0f613e34565b9060005260206000200154856005018581548110611c2f57611c2f613e34565b90600052602060002001866006018681548110611c4e57611c4e613e34565b9060005260206000200187600201546040518663ffffffff1660e01b8152600401611c7d959493929190613e63565b600060405180830381600087803b158015611c9757600080fd5b505af1158015611cab573d6000803e3d6000fd5b505060019092019150611ba99050565b506040518281527f789cf55be980739dad1d0699b93b58e806b51c9d96619bfa8fe0a28abaa7b30c90602001611502565b6000546001600160a01b03163314611d525760405162461bcd60e51b8152602060048201526024808201527f476f7665726e6f72427261766f3a3a5f696e6974696174653a2061646d696e206044820152636f6e6c7960e01b60648201526084016109e8565b60045415611dc85760405162461bcd60e51b815260206004820152603060248201527f476f7665726e6f72427261766f3a3a5f696e6974696174653a2063616e206f6e60448201527f6c7920696e697469617465206f6e63650000000000000000000000000000000060648201526084016109e8565b600455565b67ffffffffffffffff81166000908152600860209081526040808320600a9092529091208054611e0590611e0090612ce2565b612cf2565b8260090160006101000a81548167ffffffffffffffff021916908367ffffffffffffffff160217905550611e3f611e008260010154612ce2565b8260090160086101000a81548167ffffffffffffffff021916908367ffffffffffffffff160217905550611e79611e008260020154612ce2565b8260090160106101000a81548167ffffffffffffffff021916908367ffffffffffffffff160217905550505050565b6000546001600160a01b03163314611f285760405162461bcd60e51b815260206004820152602a60248201527f476f7665726e6f72427261766f3a5f73657450656e64696e6741646d696e3a2060448201527f61646d696e206f6e6c790000000000000000000000000000000000000000000060648201526084016109e8565b600180546001600160a01b038381166001600160a01b031983168117909355604080519190921680825260208201939093527fca4f2f25d0898edd99413412fb94012f9e54ec8142f9b093e7720646a95b16a99101611502565b6004611f8d82611802565b6007811115611f9e57611f9e6139cc565b1461201f5760405162461bcd60e51b8152602060048201526044602482018190527f476f7665726e6f72427261766f3a3a71756575653a2070726f706f73616c2063908201527f616e206f6e6c79206265207175657565642069662069742069732073756363656064820152631959195960e21b608482015260a4016109e8565b60008181526008602090815260408083206006548251630d48571f60e31b8152925191949361207e9342936001600160a01b0390931692636a42b8f8926004808401939192918290030181865afa158015611989573d6000803e3d6000fd5b905060005b600383015481101561223e576122368360030182815481106120a7576120a7613e34565b6000918252602090912001546004850180546001600160a01b0390921691849081106120d5576120d5613e34565b90600052602060002001548560050184815481106120f5576120f5613e34565b90600052602060002001805461210a90613ad5565b80601f016020809104026020016040519081016040528092919081815260200182805461213690613ad5565b80156121835780601f1061215857610100808354040283529160200191612183565b820191906000526020600020905b81548152906001019060200180831161216657829003601f168201915b505050505086600601858154811061219d5761219d613e34565b9060005260206000200180546121b290613ad5565b80601f01602080910402602001604051908101604052809291908181526020018280546121de90613ad5565b801561222b5780601f106122005761010080835404028352916020019161222b565b820191906000526020600020905b81548152906001019060200180831161220e57829003601f168201915b505050505086612d02565b600101612083565b506002820181905560408051848152602081018390527f9a2e42fd6722813d69113e7d0079d3d940171428df7373df9c7f7617cfda2892910160405180910390a1505050565b6040805160808082018352600080835260208084018290528385018290526060938401829052868252600881528482206001600160a01b0387168352600b0181529084902084519283018552805460ff1615158352600181015491830191909152600281015467ffffffffffffffff1693820193909352600390920154908201525b92915050565b6001546001600160a01b03163314801561232557503315155b6123975760405162461bcd60e51b815260206004820152602e60248201527f476f7665726e6f72427261766f3a5f61636365707441646d696e3a2070656e6460448201527f696e672061646d696e206f6e6c7900000000000000000000000000000000000060648201526084016109e8565b60008054600180546001600160a01b038082166001600160a01b031980861682179096559490911690915560408051919092168082526020820184905292917ff9ffabca9c8276e99321725bcb43fb076a6c66a54b7f21c4e8146d8519b417dc910160405180910390a1600154604080516001600160a01b03808516825290921660208301527fca4f2f25d0898edd99413412fb94012f9e54ec8142f9b093e7720646a95b16a99101611502565b6000818152600960205260409020546060908067ffffffffffffffff81111561247057612470613379565b6040519080825280602002602001820160405280156124bb57816020015b604080516060810182526000808252602080830182905292820152825260001990920191018161248e5790505b50915060005b8181101561111d5760008481526009602052604081208054839081106124e9576124e9613e34565b600091825260208220015460405163711d4d2960e11b8152600481018890526001600160a01b03909116602482018190529250309063e23a9a5290604401608060405180830381865afa158015612544573d6000803e3d6000fd5b505050506040513d601f19601f820116820180604052508101906125689190613ec0565b9050806020015185848151811061258157612581613e34565b6020026020010151600001818152505080604001518584815181106125a8576125a8613e34565b60200260200101516020019067ffffffffffffffff16908167ffffffffffffffff1681525050818584815181106125e1576125e1613e34565b60209081029190910101516001600160a01b0390911660409091015250506001016124c1565b600561261282611802565b6007811115612623576126236139cc565b146126bc5760405162461bcd60e51b815260206004820152604560248201527f476f7665726e6f72427261766f3a3a657865637574653a2070726f706f73616c60448201527f2063616e206f6e6c79206265206578656375746564206966206974206973207160648201527f7565756564000000000000000000000000000000000000000000000000000000608482015260a4016109e8565b60008181526008602052604081206009810180547fffffffffffff00ffffffffffffffffffffffffffffffffffffffffffffffffff16600160c81b179055905b6003820154811015612840576006546004830180546001600160a01b0390921691630825f38f91908490811061273457612734613e34565b906000526020600020015484600301848154811061275457612754613e34565b6000918252602090912001546004860180546001600160a01b03909216918690811061278257612782613e34565b90600052602060002001548660050186815481106127a2576127a2613e34565b906000526020600020018760060187815481106127c1576127c1613e34565b9060005260206000200188600201546040518763ffffffff1660e01b81526004016127f0959493929190613e63565b60006040518083038185885af115801561280e573d6000803e3d6000fd5b50505050506040513d6000823e601f3d908101601f191682016040526128379190810190613f33565b506001016126fc565b506040518281527f712ae1383f79ac853f8d882153778e0260ef8f03b504e2866e0593e04d2b291f90602001611502565b60008061287e8385613faa565b9050838110156128d05760405162461bcd60e51b815260206004820152601160248201527f6164646974696f6e206f766572666c6f7700000000000000000000000000000060448201526064016109e8565b9392505050565b6040516306cdb05b60e51b8152600160fa1b600482015267ffffffffffffffff8216602482015260009060649063d9b60b60906044015b6020604051808303816000875af115801561292d573d6000803e3d6000fd5b505050506040513d601f19601f820116820180604052508101906123069190613e4a565b6000606463c50c9c0260045b60f81b846040518363ffffffff1660e01b815260040161290e9291907fff00000000000000000000000000000000000000000000000000000000000000929092168252602082015260400190565b80516020820151604051630e4f36e160e41b815260009260649263e4f36e109261290e92600160fa1b929091600401613fbd565b600060016129ec84611802565b60078111156129fd576129fd6139cc565b14612a705760405162461bcd60e51b815260206004820152603160248201527f476f7665726e6f72427261766f3a3a63617374566f7465496e7465726e616c3a60448201527f20766f74696e6720697320636c6f73656400000000000000000000000000000060648201526084016109e8565b60008381526008602090815260408083206001600160a01b0388168452600b8101909252909120805460ff1615612b0f5760405162461bcd60e51b815260206004820152603460248201527f476f7665726e6f72427261766f3a3a63617374566f7465496e7465726e616c3a60448201527f20766f74657220616c726561647920766f74656400000000000000000000000060648201526084016109e8565b6007546040516370a0823160e01b81526001600160a01b03888116600483015260009216906370a0823190602401602060405180830381865afa158015612b5a573d6000803e3d6000fd5b505050506040513d601f19601f82011682018060405250810190612b7e9190613b09565b90506000612b8b826128d7565b600088815260096020908152604080832080546001810182559084528284200180546001600160a01b0319166001600160a01b038e161790558a8352600a9091528120805492935091612bdd90612ce2565b90506000612c19612bf78a612bf260016128d7565b612ec1565b612c0a84612c0560006128d7565b612f7f565b612c148588612f7f565b612f94565b9050612c2481612951565b835550506001810154600090612c3990612ce2565b90506000612c4e612bf78a612bf260006128d7565b9050612c5981612951565b600184015550506002810154600090612c7190612ce2565b90506000612c86612bf78a612bf260026128d7565b9050612c9181612951565b60028401555050436003820155835460ff19166001178455612cb287612951565b600185015550506002909101805467ffffffffffffffff191667ffffffffffffffff831617905595945050505050565b6000606463d2c135e5600461295d565b60006064630cfed561600461295d565b6006546040516001600160a01b039091169063f2b0653790612d309088908890889088908890602001613fe2565b604051602081830303815290604052805190602001206040518263ffffffff1660e01b8152600401612d6491815260200190565b602060405180830381865afa158015612d81573d6000803e3d6000fd5b505050506040513d601f19601f82011682018060405250810190612da5919061401c565b15612e3e5760405162461bcd60e51b815260206004820152605560248201527f476f7665726e6f72427261766f3a3a71756575654f72526576657274496e746560448201527f726e616c3a206964656e746963616c2070726f706f73616c20616374696f6e2060648201527f616c726561647920717565756564206174206574610000000000000000000000608482015260a4016109e8565b600654604051633a66f90160e01b81526001600160a01b0390911690633a66f90190612e769088908890889088908890600401613fe2565b6020604051808303816000875af1158015612e95573d6000803e3d6000fd5b505050506040513d601f19601f82011682018060405250810190612eb99190613e4a565b505050505050565b60006064637c12a1eb612ed660048085613061565b6040517fffffffff0000000000000000000000000000000000000000000000000000000060e084901b1681527fffffff0000000000000000000000000000000000000000000000000000000000909116600482015260248101869052604481018590526064016020604051808303816000875af1158015612f5b573d6000803e3d6000fd5b505050506040513d601f19601f820116820180604052508101906128d09190613e4a565b60006064638c5d0150612ed660048085613061565b600060646320cc408d612fa960048085613061565b6040517fffffffff0000000000000000000000000000000000000000000000000000000060e084901b1681527fffffff000000000000000000000000000000000000000000000000000000000090911660048201526024810187905260448101869052606481018590526084016020604051808303816000875af1158015613035573d6000803e3d6000fd5b505050506040513d601f19601f820116820180604052508101906130599190613e4a565b949350505050565b6000816002811115613075576130756139cc565b60ff16600884600481111561308c5761308c6139cc565b61ffff16901b61ffff1660108660048111156130aa576130aa6139cc565b62ffffff16901b171760e81b949350505050565b828054828255906000526020600020908101928215613113579160200282015b8281111561311357825182546001600160a01b0319166001600160a01b039091161782556020909201916001909101906130de565b5061311f929150613202565b5090565b828054828255906000526020600020908101928215613113579160200282015b82811115613113578251825591602001919060010190613143565b8280548282559060005260206000209081019282156131a4579160200282015b828111156131a457825182906131949082613ba2565b509160200191906001019061317e565b5061311f929150613217565b8280548282559060005260206000209081019282156131f6579160200282015b828111156131f657825182906131e69082613ba2565b50916020019190600101906131d0565b5061311f929150613234565b5b8082111561311f5760008155600101613203565b8082111561311f57600061322b8282613251565b50600101613217565b8082111561311f5760006132488282613251565b50600101613234565b50805461325d90613ad5565b6000825580601f1061326d575050565b601f01602090049060005260206000209081019061328b9190613202565b50565b6000602082840312156132a057600080fd5b5035919050565b60005b838110156132c25781810151838201526020016132aa565b50506000910152565b600081518084526132e38160208601602086016132a7565b601f01601f19169290920160200192915050565b60006101608d83526001600160a01b038d1660208401528b60408401528a606084015289608084015267ffffffffffffffff808a1660a085015280891660c085015280881660e08501525085151561010084015284151561012084015280610140840152613367818401856132cb565b9e9d5050505050505050505050505050565b634e487b7160e01b600052604160045260246000fd5b604051601f8201601f1916810167ffffffffffffffff811182821017156133b8576133b8613379565b604052919050565b600067ffffffffffffffff8211156133da576133da613379565b5060051b60200190565b80356001600160a01b03811681146133fb57600080fd5b919050565b600082601f83011261341157600080fd5b81356020613426613421836133c0565b61338f565b8083825260208201915060208460051b87010193508684111561344857600080fd5b602086015b8481101561346b5761345e816133e4565b835291830191830161344d565b509695505050505050565b600082601f83011261348757600080fd5b81356020613497613421836133c0565b8083825260208201915060208460051b8701019350868411156134b957600080fd5b602086015b8481101561346b57803583529183019183016134be565b600067ffffffffffffffff8211156134ef576134ef613379565b50601f01601f191660200190565b600061350b613421846134d5565b905082815283838301111561351f57600080fd5b828260208301376000602084830101529392505050565b600082601f83011261354757600080fd5b6128d0838335602085016134fd565b600082601f83011261356757600080fd5b81356020613577613421836133c0565b82815260059290921b8401810191818101908684111561359657600080fd5b8286015b8481101561346b57803567ffffffffffffffff8111156135ba5760008081fd5b6135c88986838b0101613536565b84525091830191830161359a565b600082601f8301126135e757600080fd5b813560206135f7613421836133c0565b82815260059290921b8401810191818101908684111561361657600080fd5b8286015b8481101561346b57803567ffffffffffffffff81111561363a5760008081fd5b8701603f8101891361364c5760008081fd5b61365d8986830135604084016134fd565b84525091830191830161361a565b600080600080600080600060e0888a03121561368657600080fd5b873567ffffffffffffffff8082111561369e57600080fd5b6136aa8b838c01613400565b985060208a01359150808211156136c057600080fd5b6136cc8b838c01613476565b975060408a01359150808211156136e257600080fd5b6136ee8b838c01613556565b965060608a013591508082111561370457600080fd5b6137108b838c016135d6565b955060808a013591508082111561372657600080fd5b506137338a828b01613536565b93505060a0880135915060c0880135905092959891949750929550565b6000806000806060858703121561376657600080fd5b8435935060208501359250604085013567ffffffffffffffff8082111561378c57600080fd5b818701915087601f8301126137a057600080fd5b8135818111156137af57600080fd5b8860208285010111156137c157600080fd5b95989497505060200194505050565b6020815260006128d060208301846132cb565b60008151808452602080850194506020840160005b8381101561381d5781516001600160a01b0316875295820195908201906001016137f8565b509495945050505050565b6020815260006128d060208301846137e3565b60008060006060848603121561385057600080fd5b613859846133e4565b9250613867602085016133e4565b9150604084013590509250925092565b60006020828403121561388957600080fd5b6128d0826133e4565b600080604083850312156138a557600080fd5b50508035926020909101359150565b60008282518085526020808601955060208260051b8401016020860160005b8481101561390157601f198684030189526138ef8383516132cb565b988401989250908301906001016138d3565b5090979650505050505050565b60808152600061392160808301876137e3565b82810360208481019190915286518083528782019282019060005b818110156139585784518352938301939183019160010161393c565b5050848103604086015286518082528282019350600581901b8201830183890160005b838110156139a957601f198584030187526139978383516132cb565b9686019692509085019060010161397b565b505086810360608801526139bd81896138b4565b9b9a5050505050505050505050565b634e487b7160e01b600052602160045260246000fd5b6020810160088310613a0457634e487b7160e01b600052602160045260246000fd5b91905290565b67ffffffffffffffff8116811461328b57600080fd5b600060208284031215613a3257600080fd5b81356128d081613a0a565b60008060408385031215613a5057600080fd5b82359150613a60602084016133e4565b90509250929050565b602080825282518282018190526000919060409081850190868401855b82811015613ac8578151805185528681015167ffffffffffffffff16878601528501516001600160a01b03168585015260609093019290850190600101613a86565b5091979650505050505050565b600181811c90821680613ae957607f821691505b6020821081036119ca57634e487b7160e01b600052602260045260246000fd5b600060208284031215613b1b57600080fd5b81516128d081613a0a565b634e487b7160e01b600052601160045260246000fd5b600060018201613b4e57613b4e613b26565b5060010190565b601f821115613b9d576000816000526020600020601f850160051c81016020861015613b7e5750805b601f850160051c820191505b81811015612eb957828155600101613b8a565b505050565b815167ffffffffffffffff811115613bbc57613bbc613379565b613bd081613bca8454613ad5565b84613b55565b602080601f831160018114613c055760008415613bed5750858301515b600019600386901b1c1916600185901b178555612eb9565b600085815260208120601f198616915b82811015613c3457888601518255948401946001909101908401613c15565b5085821015613c525787850151600019600388901b60f8161c191681555b5050505050600190811b01905550565b600081548084526020808501945083600052602060002060005b8381101561381d57815487529582019560019182019101613c7c565b60008154613ca581613ad5565b808552602060018381168015613cc25760018114613cdc57613d0a565b60ff1985168884015283151560051b880183019550613d0a565b866000528260002060005b85811015613d025781548a8201860152908301908401613ce7565b890184019650505b505050505092915050565b60008282548085526020808601955060208260051b84010185600052602060002060005b8481101561390157858303601f19018952613d548383613c98565b98840198925060019182019101613d39565b60006101208083018c845260206001600160a01b03808e1660208701528360408701528293508c54808452610140870194508d6000526020600020935060005b81811015613dc4578454831686529483019460019485019401613da6565b50505050508281036060840152613ddb818a613c62565b90508281036080840152613def8189613d15565b905082810360a0840152613e038188613d15565b90508560c08401528460e0840152828103610100840152613e248185613c98565b9c9b505050505050505050505050565b634e487b7160e01b600052603260045260246000fd5b600060208284031215613e5c57600080fd5b5051919050565b6001600160a01b038616815284602082015260a060408201526000613e8b60a0830186613c98565b8281036060840152613e9d8186613c98565b9150508260808301529695505050505050565b805180151581146133fb57600080fd5b600060808284031215613ed257600080fd5b6040516080810181811067ffffffffffffffff82111715613ef557613ef5613379565b604052613f0183613eb0565b8152602083015160208201526040830151613f1b81613a0a565b60408201526060928301519281019290925250919050565b600060208284031215613f4557600080fd5b815167ffffffffffffffff811115613f5c57600080fd5b8201601f81018413613f6d57600080fd5b8051613f7b613421826134d5565b818152856020838501011115613f9057600080fd5b613fa18260208301602086016132a7565b95945050505050565b8082018082111561230657612306613b26565b60ff60f81b84168152826020820152606060408201526000613fa160608301846132cb565b6001600160a01b038616815284602082015260a06040820152600061400a60a08301866132cb565b8281036060840152613e9d81866132cb565b60006020828403121561402e57600080fd5b6128d082613eb056fea2646970667358221220320546ca88e773617333ddceec8ac5c4a021be91fe0878edb800cd658792af1464736f6c63430008180033",
  "linkReferences": {},
  "deployedLinkReferences": {}
}