{
  "_format": "hh-sol-artifact-1",
  "contractName": "FHEToken",
  "sourceName": "contracts/fhe/FHEToken.sol",
  "abi": [
    {
      "inputs": [
        {
          "internalType": "address",
          "name": "account",
          "type": "address"
        }
      ],
      "stateMutability": "nonpayable",
      "type": "constructor"
    },
    {
      "anonymous": false,
      "inputs": [
        {
          "indexed": true,
          "internalType": "address",
          "name": "owner",
          "type": "address"
        },
        {
          "indexed": true,
          "internalType": "address",
          "name": "spender",
          "type": "address"
        },
        {
          "indexed": false,
          "internalType": "uint256",
          "name": "amount",
          "type": "uint256"
        }
      ],
      "name": "Approval",
      "type": "event"
    },
    {
      "anonymous": false,
      "inputs": [
        {
          "indexed": true,
          "internalType": "address",
          "name": "delegator",
          "type": "address"
        },
        {
          "indexed": true,
          "internalType": "address",
          "name": "fromDelegate",
          "type": "address"
        },
        {
          "indexed": true,
          "internalType": "address",
          "name": "toDelegate",
          "type": "address"
        }
      ],
      "name": "DelegateChanged",
      "type": "event"
    },
    {
      "anonymous": false,
      "inputs": [
        {
          "indexed": true,
          "internalType": "address",
          "name": "delegate",
          "type": "address"
        },
        {
          "indexed": false,
          "internalType": "uint64",
          "name": "previousBalance",
          "type": "uint64"
        },
        {
          "indexed": false,
          "internalType": "uint64",
          "name": "newBalance",
          "type": "uint64"
        }
      ],
      "name": "DelegateVotesChanged",
      "type": "event"
    },
    {
      "anonymous": false,
      "inputs": [
        {
          "indexed": false,
          "internalType": "address",
          "name": "minter",
          "type": "address"
        },
        {
          "indexed": false,
          "internalType": "address",
          "name": "newMinter",
          "type": "address"
        }
      ],
      "name": "MinterChanged",
      "type": "event"
    },
    {
      "anonymous": false,
      "inputs": [
        {
          "indexed": true,
          "internalType": "address",
          "name": "from",
          "type": "address"
        },
        {
          "indexed": true,
          "internalType": "address",
          "name": "to",
          "type": "address"
        },
        {
          "indexed": false,
          "internalType": "uint256",
          "name": "amount",
          "type": "uint256"
        }
      ],
      "name": "Transfer",
      "type": "event"
    },
    {
      "inputs": [
        {
          "internalType": "address",
          "name": "spender",
          "type": "address"
        },
        {
          "internalType": "uint256",
          "name": "rawAmount",
          "type": "uint256"
        }
      ],
      "name": "approve",
      "outputs": [
        {
          "internalType": "bool",
          "name": "",
          "type": "bool"
        }
      ],
      "stateMutability": "nonpayable",
      "type": "function"
    },
    {
      "inputs": [
        {
          "internalType": "address",
          "name": "account",
          "type": "address"
        }
      ],
      "name": "balanceOf",
      "outputs": [
        {
          "internalType": "uint256",
          "name": "",
          "type": "uint256"
        }
      ],
      "stateMutability": "view",
      "type": "function"
    },
    {
      "inputs": [
        {
          "internalType": "address",
          "name": "",
          "type": "address"
        },
        {
          "internalType": "uint32",
          "name": "",
          "type": "uint32"
        }
      ],
      "name": "checkpoints",
      "outputs": [
        {
          "internalType": "uint32",
          "name": "fromBlock",
          "type": "uint32"
        },
        {
          "internalType": "uint64",
          "name": "votes",
          "type": "uint64"
        }
      ],
      "stateMutability": "view",
      "type": "function"
    },
    {
      "inputs": [],
      "name": "decimals",
      "outputs": [
        {
          "internalType": "uint8",
          "name": "",
          "type": "uint8"
        }
      ],
      "stateMutability": "view",
      "type": "function"
    },
    {
      "inputs": [
        {
          "internalType": "address",
          "name": "delegatee",
          "type": "address"
        }
      ],
      "name": "delegate",
      "outputs": [],
      "stateMutability": "nonpayable",
      "type": "function"
    },
    {
      "inputs": [
        {
          "internalType": "address",
          "name": "",
          "type": "address"
        }
      ],
      "name": "delegates",
      "outputs": [
        {
          "internalType": "address",
          "name": "",
          "type": "address"
        }
      ],
      "stateMutability": "view",
      "type": "function"
    },
    {
      "inputs": [
        {
          "internalType": "address",
          "name": "account",
          "type": "address"
        }
      ],
      "name": "getCurrentVotes",
      "outputs": [
        {
          "internalType": "uint64",
          "name": "",
          "type": "uint64"
        }
      ],
      "stateMutability": "view",
      "type": "function"
    },
    {
      "inputs": [
        {
          "internalType": "address",
          "name": "account",
          "type": "address"
        },
        {
          "internalType": "uint256",
          "name": "blockNumber",
          "type": "uint256"
        }
      ],
      "name": "getPriorVotes",
      "outputs": [
        {
          "internalType": "uint64",
          "name": "",
          "type": "uint64"
        }
      ],
      "stateMutability": "view",
      "type": "function"
    },
    {
      "inputs": [],
      "name": "name",
      "outputs": [
        {
          "internalType": "string",
          "name": "",
          "type": "string"
        }
      ],
      "stateMutability": "view",
      "type": "function"
    },
    {
      "inputs": [
        {
          "internalType": "address",
          "name": "",
          "type": "address"
        }
      ],
      "name": "nonces",
      "outputs": [
        {
          "internalType": "uint256",
          "name": "",
          "type": "uint256"
        }
      ],
      "stateMutability": "view",
      "type": "function"
    },
    {
      "inputs": [
        {
          "internalType": "address",
          "name": "",
          "type": "address"
        }
      ],
      "name": "numCheckpoints",
      "outputs": [
        {
          "internalType": "uint32",
          "name": "",
          "type": "uint32"
        }
      ],
      "stateMutability": "view",
      "type": "function"
    },
    {
      "inputs": [
        {
          "internalType": "bytes4",
          "name": "interfaceID",
          "type": "bytes4"
        }
      ],
      "name": "supportsInterface",
      "outputs": [
        {
          "internalType": "bool",
          "name": "",
          "type": "bool"
        }
      ],
      "stateMutability": "pure",
      "type": "function"
    },
    {
      "inputs": [],
      "name": "symbol",
      "outputs": [
        {
          "internalType": "string",
          "name": "",
          "type": "string"
        }
      ],
      "stateMutability": "view",
      "type": "function"
    },
    {
      "inputs": [],
      "name": "totalSupply",
      "outputs": [
        {
          "internalType": "uint256",
          "name": "",
          "type": "uint256"
        }
      ],
      "stateMutability": "view",
      "type": "function"
    },
    {
      "inputs": [
        {
          "internalType": "address",
          "name": "dst",
          "type": "address"
        },
        {
          "internalType": "uint256",
          "name": "rawAmount",
          "type": "uint256"
        }
      ],
      "name": "transfer",
      "outputs": [
        {
          "internalType": "bool",
          "name": "",
          "type": "bool"
        }
      ],
      "stateMutability": "nonpayable",
      "type": "function"
    },
    {
      "inputs": [
        {
          "internalType": "address",
          "name": "src",
          "type": "address"
        },
        {
          "internalType": "address",
          "name": "dst",
          "type": "address"
        },
        {
          "internalType": "uint256",
          "name": "rawAmount",
          "type": "uint256"
        }
      ],
      "name": "transferFrom",
      "outputs": [
        {
          "internalType": "bool",
          "name": "",
          "type": "bool"
        }
      ],
      "stateMutability": "nonpayable",
      "type": "function"
    }
  ],
  "bytecode": "0x60806040526509184e72a00060005534801561001a57600080fd5b5060405161158e38038061158e83398101604081905261003991610076565b600080546001600160a01b0392909216815260026020526040902080546001600160401b0319166001600160401b039092169190911790556100a6565b60006020828403121561008857600080fd5b81516001600160a01b038116811461009f57600080fd5b9392505050565b6114d9806100b56000396000f3fe608060405234801561001057600080fd5b50600436106101005760003560e01c80636fcfff451161009757806395d89b411161006657806395d89b41146102de578063a9059cbb14610301578063b4b5ea5714610314578063f1127ed81461032757600080fd5b80636fcfff451461022457806370a082311461025f578063782d6fe1146102925780637ecebe00146102be57600080fd5b806323b872dd116100d357806323b872dd146101a1578063313ce567146101b4578063587cde1e146101ce5780635c19a95c1461020f57600080fd5b806301ffc9a71461010557806306fdde031461012e578063095ea7b31461017757806318160ddd1461018a575b600080fd5b6101196101133660046110d3565b50600090565b60405190151581526020015b60405180910390f35b61016a6040518060400160405280600881526020017f464845546f6b656e00000000000000000000000000000000000000000000000081525081565b6040516101259190611115565b610119610185366004611180565b610391565b61019360005481565b604051908152602001610125565b6101196101af3660046111aa565b61043b565b6101bc600681565b60405160ff9091168152602001610125565b6101f76101dc3660046111e6565b6003602052600090815260409020546001600160a01b031681565b6040516001600160a01b039091168152602001610125565b61022261021d3660046111e6565b61056f565b005b61024a6102323660046111e6565b60056020526000908152604090205463ffffffff1681565b60405163ffffffff9091168152602001610125565b61019361026d3660046111e6565b6001600160a01b031660009081526002602052604090205467ffffffffffffffff1690565b6102a56102a0366004611180565b61057c565b60405167ffffffffffffffff9091168152602001610125565b6101936102cc3660046111e6565b60066020526000908152604090205481565b61016a604051806040016040528060048152602001631192115560e21b81525081565b61011961030f366004611180565b610827565b6102a56103223660046111e6565b610863565b61036c610335366004611201565b600460209081526000928352604080842090915290825290205463ffffffff811690640100000000900467ffffffffffffffff1682565b6040805163ffffffff909316835267ffffffffffffffff909116602083015201610125565b6000806103b683604051806060016040528060248152602001611431602491396108e3565b3360008181526001602090815260408083206001600160a01b038a1680855290835292819020805467ffffffffffffffff191667ffffffffffffffff8716908117909155905190815293945090927f8c5be1e5ebec7d5bd14f71427d1e84f3dd0314c0f7b2291e5b200ac8c7c3b925910160405180910390a360019150505b92915050565b6000806104608360405180606001604052806029815260200161133c602991396108e3565b6001600160a01b0386166000818152600160209081526040808320338085529252909120549293509167ffffffffffffffff169082148015906104ad575067ffffffffffffffff81811614155b156105575760006104d782856040518060600160405280603d81526020016113c0603d9139610917565b6001600160a01b03898116600081815260016020908152604080832094891680845294825291829020805467ffffffffffffffff191667ffffffffffffffff87169081179091559151918252939450919290917f8c5be1e5ebec7d5bd14f71427d1e84f3dd0314c0f7b2291e5b200ac8c7c3b925910160405180910390a3505b610562878785610963565b5060019695505050505050565b6105793382610c0b565b50565b60004382106105f85760405162461bcd60e51b815260206004820152602760248201527f464845543a3a6765745072696f72566f7465733a206e6f74207965742064657460448201527f65726d696e65640000000000000000000000000000000000000000000000000060648201526084015b60405180910390fd5b6001600160a01b03831660009081526005602052604081205463ffffffff1690819003610629576000915050610435565b6001600160a01b0384166000908152600460205260408120849161064e600185611257565b63ffffffff908116825260208201929092526040016000205416116106c3576001600160a01b038416600090815260046020526040812090610691600184611257565b63ffffffff168152602081019190915260400160002054640100000000900467ffffffffffffffff1691506104359050565b6001600160a01b038416600090815260046020908152604080832083805290915290205463ffffffff168310156106fe576000915050610435565b60008061070c600184611257565b90505b8163ffffffff168163ffffffff1611156107e057600060026107318484611257565b61073b919061127b565b6107459083611257565b6001600160a01b038816600090815260046020908152604080832063ffffffff85811685529083529281902081518083019092525492831680825264010000000090930467ffffffffffffffff16918101919091529192508790036107b4576020015194506104359350505050565b805163ffffffff168711156107cb578193506107d9565b6107d6600183611257565b92505b505061070f565b506001600160a01b038516600090815260046020908152604080832063ffffffff9094168352929052205467ffffffffffffffff6401000000009091041691505092915050565b60008061084c8360405180606001604052806025815260200161139b602591396108e3565b9050610859338583610963565b5060019392505050565b6001600160a01b03811660009081526005602052604081205463ffffffff168061088e5760006108dc565b6001600160a01b0383166000908152600460205260408120906108b2600184611257565b63ffffffff168152602081019190915260400160002054640100000000900467ffffffffffffffff165b9392505050565b60008168010000000000000000841061090f5760405162461bcd60e51b81526004016105ef9190611115565b509192915050565b60008367ffffffffffffffff168367ffffffffffffffff16111582906109505760405162461bcd60e51b81526004016105ef9190611115565b5061095b83856112ac565b949350505050565b6001600160a01b0383166109df5760405162461bcd60e51b815260206004820152603c60248201527f464845543a3a5f7472616e73666572546f6b656e733a2063616e6e6f7420747260448201527f616e736665722066726f6d20746865207a65726f20616464726573730000000060648201526084016105ef565b6001600160a01b038216610a5b5760405162461bcd60e51b815260206004820152603a60248201527f464845543a3a5f7472616e73666572546f6b656e733a2063616e6e6f7420747260448201527f616e7366657220746f20746865207a65726f206164647265737300000000000060648201526084016105ef565b6001600160a01b0383811660009081526003602052604090205416610a8457610a848384610c0b565b6001600160a01b0382811660009081526003602052604090205416610aad57610aad8283610c0b565b6001600160a01b038316600090815260026020908152604091829020548251606081019093526036808452610af99367ffffffffffffffff909216928592919061136590830139610917565b6001600160a01b038481166000908152600260209081526040808320805467ffffffffffffffff191667ffffffffffffffff968716179055928616825290829020548251606081019093526030808452610b63949190911692859290919061130c90830139610cae565b6001600160a01b03838116600081815260026020908152604091829020805467ffffffffffffffff191667ffffffffffffffff968716179055905193851684529092918616917fddf252ad1be2c89b69c2b068fc378daa952ba7f163c4a11628f55a4df523b3ef910160405180910390a36001600160a01b03808416600090815260036020526040808220548584168352912054610c0692918216911683610cfd565b505050565b6001600160a01b03808316600081815260036020818152604080842080546002845282862054949093528787167fffffffffffffffffffffffff0000000000000000000000000000000000000000841681179091559051919095169467ffffffffffffffff9092169391928592917f3134e8a2e6d97e929a7e54011ea5485d7d196dd5f0ba4d4ef95803e8e3fc257f9190a4610ca8828483610cfd565b50505050565b600080610cbb84866112cd565b90508467ffffffffffffffff168167ffffffffffffffff1610158390610cf45760405162461bcd60e51b81526004016105ef9190611115565b50949350505050565b816001600160a01b0316836001600160a01b031614158015610d29575060008167ffffffffffffffff16115b15610c06576001600160a01b03831615610df0576001600160a01b03831660009081526005602052604081205463ffffffff169081610d69576000610db7565b6001600160a01b038516600090815260046020526040812090610d8d600185611257565b63ffffffff168152602081019190915260400160002054640100000000900467ffffffffffffffff165b90506000610dde828560405180606001604052806028815260200161145560289139610917565b9050610dec86848484610eb6565b5050505b6001600160a01b03821615610c06576001600160a01b03821660009081526005602052604081205463ffffffff169081610e2b576000610e79565b6001600160a01b038416600090815260046020526040812090610e4f600185611257565b63ffffffff168152602081019190915260400160002054640100000000900467ffffffffffffffff165b90506000610ea0828560405180606001604052806027815260200161147d60279139610cae565b9050610eae85848484610eb6565b505050505050565b6000610eda436040518060600160405280603481526020016113fd603491396110ab565b905060008463ffffffff16118015610f3457506001600160a01b038516600090815260046020526040812063ffffffff831691610f18600188611257565b63ffffffff908116825260208201929092526040016000205416145b15610fa6576001600160a01b03851660009081526004602052604081208391610f5e600188611257565b63ffffffff1681526020810191909152604001600020805467ffffffffffffffff92909216640100000000026bffffffffffffffff0000000019909216919091179055611055565b60408051808201825263ffffffff808416825267ffffffffffffffff80861660208085019182526001600160a01b038b166000908152600482528681208b8616825290915294909420925183549451909116640100000000026bffffffffffffffffffffffff199094169116179190911790556110248460016112ee565b6001600160a01b0386166000908152600560205260409020805463ffffffff191663ffffffff929092169190911790555b6040805167ffffffffffffffff8086168252841660208201526001600160a01b038716917f3750d6d938cafba8ae4c5d0e44f0df156c31654cf0596c2c7ed37933603cf04a910160405180910390a25050505050565b600081640100000000841061090f5760405162461bcd60e51b81526004016105ef9190611115565b6000602082840312156110e557600080fd5b81357fffffffff00000000000000000000000000000000000000000000000000000000811681146108dc57600080fd5b60006020808352835180602085015260005b8181101561114357858101830151858201604001528201611127565b506000604082860101526040601f19601f8301168501019250505092915050565b80356001600160a01b038116811461117b57600080fd5b919050565b6000806040838503121561119357600080fd5b61119c83611164565b946020939093013593505050565b6000806000606084860312156111bf57600080fd5b6111c884611164565b92506111d660208501611164565b9150604084013590509250925092565b6000602082840312156111f857600080fd5b6108dc82611164565b6000806040838503121561121457600080fd5b61121d83611164565b9150602083013563ffffffff8116811461123657600080fd5b809150509250929050565b634e487b7160e01b600052601160045260246000fd5b63ffffffff82811682821603908082111561127457611274611241565b5092915050565b600063ffffffff808416806112a057634e487b7160e01b600052601260045260246000fd5b92169190910492915050565b67ffffffffffffffff82811682821603908082111561127457611274611241565b67ffffffffffffffff81811683821601908082111561127457611274611241565b63ffffffff8181168382160190808211156112745761127461124156fe464845543a3a5f7472616e73666572546f6b656e733a207472616e7366657220616d6f756e74206f766572666c6f77734648453a3a7472616e7366657246726f6d3a20616d6f756e7420657863656564732036342062697473464845543a3a5f7472616e73666572546f6b656e733a207472616e7366657220616d6f756e7420657863656564732062616c616e63654648453a3a7472616e736665723a20616d6f756e7420657863656564732036342062697473464845543a3a7472616e7366657246726f6d3a207472616e7366657220616d6f756e742065786365656473207370656e64657220616c6c6f77616e6365464845543a3a5f7772697465436865636b706f696e743a20626c6f636b206e756d626572206578636565647320333220626974734648453a3a617070726f76653a20616d6f756e7420657863656564732036342062697473464845543a3a5f6d6f7665566f7465733a20766f746520616d6f756e7420756e646572666c6f7773464845543a3a5f6d6f7665566f7465733a20766f746520616d6f756e74206f766572666c6f7773a2646970667358221220703b79a73f5b500e9e84f490123448ca6326e087cc149e636bc45bc52fd5696864736f6c63430008180033",
  "linkReferences": {},
  "deployedLinkReferences": {}
}