{
  "_format": "hh-sol-artifact-1",
  "contractName": "FHEToken",
  "sourceName": "contracts/FHEToken.sol",
  "abi": [
    {
      "inputs": [
        {
          "internalType": "address",
          "name": "account",
          "type": "address"
        }
      ],
      "stateMutability": "nonpayable",
      "type": "constructor"
    },
    {
      "anonymous": false,
      "inputs": [
        {
          "indexed": true,
          "internalType": "address",
          "name": "owner",
          "type": "address"
        },
        {
          "indexed": true,
          "internalType": "address",
          "name": "spender",
          "type": "address"
        },
        {
          "indexed": false,
          "internalType": "uint256",
          "name": "amount",
          "type": "uint256"
        }
      ],
      "name": "Approval",
      "type": "event"
    },
    {
      "anonymous": false,
      "inputs": [
        {
          "indexed": true,
          "internalType": "address",
          "name": "delegator",
          "type": "address"
        },
        {
          "indexed": true,
          "internalType": "address",
          "name": "fromDelegate",
          "type": "address"
        },
        {
          "indexed": true,
          "internalType": "address",
          "name": "toDelegate",
          "type": "address"
        }
      ],
      "name": "DelegateChanged",
      "type": "event"
    },
    {
      "anonymous": false,
      "inputs": [
        {
          "indexed": true,
          "internalType": "address",
          "name": "delegate",
          "type": "address"
        },
        {
          "indexed": false,
          "internalType": "uint64",
          "name": "previousBalance",
          "type": "uint64"
        },
        {
          "indexed": false,
          "internalType": "uint64",
          "name": "newBalance",
          "type": "uint64"
        }
      ],
      "name": "DelegateVotesChanged",
      "type": "event"
    },
    {
      "anonymous": false,
      "inputs": [
        {
          "indexed": false,
          "internalType": "address",
          "name": "minter",
          "type": "address"
        },
        {
          "indexed": false,
          "internalType": "address",
          "name": "newMinter",
          "type": "address"
        }
      ],
      "name": "MinterChanged",
      "type": "event"
    },
    {
      "anonymous": false,
      "inputs": [
        {
          "indexed": true,
          "internalType": "address",
          "name": "from",
          "type": "address"
        },
        {
          "indexed": true,
          "internalType": "address",
          "name": "to",
          "type": "address"
        },
        {
          "indexed": false,
          "internalType": "uint256",
          "name": "amount",
          "type": "uint256"
        }
      ],
      "name": "Transfer",
      "type": "event"
    },
    {
      "inputs": [
        {
          "internalType": "address",
          "name": "spender",
          "type": "address"
        },
        {
          "internalType": "uint256",
          "name": "rawAmount",
          "type": "uint256"
        }
      ],
      "name": "approve",
      "outputs": [
        {
          "internalType": "bool",
          "name": "",
          "type": "bool"
        }
      ],
      "stateMutability": "nonpayable",
      "type": "function"
    },
    {
      "inputs": [
        {
          "internalType": "address",
          "name": "account",
          "type": "address"
        }
      ],
      "name": "balanceOf",
      "outputs": [
        {
          "internalType": "uint256",
          "name": "",
          "type": "uint256"
        }
      ],
      "stateMutability": "view",
      "type": "function"
    },
    {
      "inputs": [
        {
          "internalType": "address",
          "name": "",
          "type": "address"
        },
        {
          "internalType": "uint32",
          "name": "",
          "type": "uint32"
        }
      ],
      "name": "checkpoints",
      "outputs": [
        {
          "internalType": "uint32",
          "name": "fromBlock",
          "type": "uint32"
        },
        {
          "internalType": "uint64",
          "name": "votes",
          "type": "uint64"
        }
      ],
      "stateMutability": "view",
      "type": "function"
    },
    {
      "inputs": [],
      "name": "decimals",
      "outputs": [
        {
          "internalType": "uint8",
          "name": "",
          "type": "uint8"
        }
      ],
      "stateMutability": "view",
      "type": "function"
    },
    {
      "inputs": [
        {
          "internalType": "address",
          "name": "delegatee",
          "type": "address"
        }
      ],
      "name": "delegate",
      "outputs": [],
      "stateMutability": "nonpayable",
      "type": "function"
    },
    {
      "inputs": [
        {
          "internalType": "address",
          "name": "",
          "type": "address"
        }
      ],
      "name": "delegates",
      "outputs": [
        {
          "internalType": "address",
          "name": "",
          "type": "address"
        }
      ],
      "stateMutability": "view",
      "type": "function"
    },
    {
      "inputs": [
        {
          "internalType": "address",
          "name": "account",
          "type": "address"
        }
      ],
      "name": "getCurrentVotes",
      "outputs": [
        {
          "internalType": "uint64",
          "name": "",
          "type": "uint64"
        }
      ],
      "stateMutability": "view",
      "type": "function"
    },
    {
      "inputs": [
        {
          "internalType": "address",
          "name": "account",
          "type": "address"
        },
        {
          "internalType": "uint256",
          "name": "blockNumber",
          "type": "uint256"
        }
      ],
      "name": "getPriorVotes",
      "outputs": [
        {
          "internalType": "uint64",
          "name": "",
          "type": "uint64"
        }
      ],
      "stateMutability": "view",
      "type": "function"
    },
    {
      "inputs": [],
      "name": "name",
      "outputs": [
        {
          "internalType": "string",
          "name": "",
          "type": "string"
        }
      ],
      "stateMutability": "view",
      "type": "function"
    },
    {
      "inputs": [
        {
          "internalType": "address",
          "name": "",
          "type": "address"
        }
      ],
      "name": "nonces",
      "outputs": [
        {
          "internalType": "uint256",
          "name": "",
          "type": "uint256"
        }
      ],
      "stateMutability": "view",
      "type": "function"
    },
    {
      "inputs": [
        {
          "internalType": "address",
          "name": "",
          "type": "address"
        }
      ],
      "name": "numCheckpoints",
      "outputs": [
        {
          "internalType": "uint32",
          "name": "",
          "type": "uint32"
        }
      ],
      "stateMutability": "view",
      "type": "function"
    },
    {
      "inputs": [
        {
          "internalType": "bytes4",
          "name": "interfaceID",
          "type": "bytes4"
        }
      ],
      "name": "supportsInterface",
      "outputs": [
        {
          "internalType": "bool",
          "name": "",
          "type": "bool"
        }
      ],
      "stateMutability": "pure",
      "type": "function"
    },
    {
      "inputs": [],
      "name": "symbol",
      "outputs": [
        {
          "internalType": "string",
          "name": "",
          "type": "string"
        }
      ],
      "stateMutability": "view",
      "type": "function"
    },
    {
      "inputs": [],
      "name": "totalSupply",
      "outputs": [
        {
          "internalType": "uint256",
          "name": "",
          "type": "uint256"
        }
      ],
      "stateMutability": "view",
      "type": "function"
    },
    {
      "inputs": [
        {
          "internalType": "address",
          "name": "dst",
          "type": "address"
        },
        {
          "internalType": "uint256",
          "name": "rawAmount",
          "type": "uint256"
        }
      ],
      "name": "transfer",
      "outputs": [
        {
          "internalType": "bool",
          "name": "",
          "type": "bool"
        }
      ],
      "stateMutability": "nonpayable",
      "type": "function"
    },
    {
      "inputs": [
        {
          "internalType": "address",
          "name": "src",
          "type": "address"
        },
        {
          "internalType": "address",
          "name": "dst",
          "type": "address"
        },
        {
          "internalType": "uint256",
          "name": "rawAmount",
          "type": "uint256"
        }
      ],
      "name": "transferFrom",
      "outputs": [
        {
          "internalType": "bool",
          "name": "",
          "type": "bool"
        }
      ],
      "stateMutability": "nonpayable",
      "type": "function"
    }
  ],
  "bytecode": "0x60806040526509184e72a0005f55348015610018575f80fd5b5060405161150438038061150483398101604081905261003791610073565b5f80546001600160a01b0392909216815260026020526040902080546001600160401b0319166001600160401b039092169190911790556100a0565b5f60208284031215610083575f80fd5b81516001600160a01b0381168114610099575f80fd5b9392505050565b611457806100ad5f395ff3fe608060405234801561000f575f80fd5b50600436106100fb575f3560e01c80636fcfff451161009357806395d89b411161006357806395d89b41146102d2578063a9059cbb146102f5578063b4b5ea5714610308578063f1127ed81461031b575f80fd5b80636fcfff451461021b57806370a0823114610255578063782d6fe1146102875780637ecebe00146102b3575f80fd5b806323b872dd116100ce57806323b872dd14610199578063313ce567146101ac578063587cde1e146101c65780635c19a95c14610206575f80fd5b806301ffc9a7146100ff57806306fdde0314610127578063095ea7b31461017057806318160ddd14610183575b5f80fd5b61011261010d366004611090565b505f90565b60405190151581526020015b60405180910390f35b6101636040518060400160405280600881526020017f464845546f6b656e00000000000000000000000000000000000000000000000081525081565b60405161011e91906110cf565b61011261017e366004611136565b610384565b61018b5f5481565b60405190815260200161011e565b6101126101a736600461115e565b61042c565b6101b4600681565b60405160ff909116815260200161011e565b6101ee6101d4366004611197565b60036020525f90815260409020546001600160a01b031681565b6040516001600160a01b03909116815260200161011e565b610219610214366004611197565b61055c565b005b610240610229366004611197565b60056020525f908152604090205463ffffffff1681565b60405163ffffffff909116815260200161011e565b61018b610263366004611197565b6001600160a01b03165f9081526002602052604090205467ffffffffffffffff1690565b61029a610295366004611136565b610569565b60405167ffffffffffffffff909116815260200161011e565b61018b6102c1366004611197565b60066020525f908152604090205481565b610163604051806040016040528060048152602001631192115560e21b81525081565b610112610303366004611136565b610807565b61029a610316366004611197565b610842565b61035f6103293660046111b0565b600460209081525f928352604080842090915290825290205463ffffffff811690640100000000900467ffffffffffffffff1682565b6040805163ffffffff909316835267ffffffffffffffff90911660208301520161011e565b5f806103a8836040518060600160405280602481526020016113d8602491396108be565b335f8181526001602090815260408083206001600160a01b038a1680855290835292819020805467ffffffffffffffff191667ffffffffffffffff8716908117909155905190815293945090927f8c5be1e5ebec7d5bd14f71427d1e84f3dd0314c0f7b2291e5b200ac8c7c3b925910160405180910390a360019150505b92915050565b5f80610450836040518060600160405280602981526020016112e3602991396108be565b6001600160a01b0386165f818152600160209081526040808320338085529252909120549293509167ffffffffffffffff1690821480159061049c575067ffffffffffffffff81811614155b15610544575f6104c582856040518060600160405280603d8152602001611367603d91396108f1565b6001600160a01b038981165f81815260016020908152604080832094891680845294825291829020805467ffffffffffffffff191667ffffffffffffffff87169081179091559151918252939450919290917f8c5be1e5ebec7d5bd14f71427d1e84f3dd0314c0f7b2291e5b200ac8c7c3b925910160405180910390a3505b61054f87878561093c565b5060019695505050505050565b6105663382610bde565b50565b5f4382106105e45760405162461bcd60e51b815260206004820152602760248201527f464845543a3a6765745072696f72566f7465733a206e6f74207965742064657460448201527f65726d696e65640000000000000000000000000000000000000000000000000060648201526084015b60405180910390fd5b6001600160a01b0383165f9081526005602052604081205463ffffffff1690819003610613575f915050610426565b6001600160a01b0384165f9081526004602052604081208491610637600185611201565b63ffffffff908116825260208201929092526040015f205416116106a9576001600160a01b0384165f90815260046020526040812090610678600184611201565b63ffffffff16815260208101919091526040015f2054640100000000900467ffffffffffffffff1691506104269050565b6001600160a01b0384165f90815260046020908152604080832083805290915290205463ffffffff168310156106e2575f915050610426565b5f806106ef600184611201565b90505b8163ffffffff168163ffffffff1611156107c1575f60026107138484611201565b61071d9190611225565b6107279083611201565b6001600160a01b0388165f90815260046020908152604080832063ffffffff85811685529083529281902081518083019092525492831680825264010000000090930467ffffffffffffffff1691810191909152919250879003610795576020015194506104269350505050565b805163ffffffff168711156107ac578193506107ba565b6107b7600183611201565b92505b50506106f2565b506001600160a01b0385165f90815260046020908152604080832063ffffffff9094168352929052205467ffffffffffffffff6401000000009091041691505092915050565b5f8061082b83604051806060016040528060258152602001611342602591396108be565b905061083833858361093c565b5060019392505050565b6001600160a01b0381165f9081526005602052604081205463ffffffff168061086b575f6108b7565b6001600160a01b0383165f9081526004602052604081209061088e600184611201565b63ffffffff16815260208101919091526040015f2054640100000000900467ffffffffffffffff165b9392505050565b5f816801000000000000000084106108e95760405162461bcd60e51b81526004016105db91906110cf565b509192915050565b5f8367ffffffffffffffff168367ffffffffffffffff16111582906109295760405162461bcd60e51b81526004016105db91906110cf565b506109348385611253565b949350505050565b6001600160a01b0383166109b85760405162461bcd60e51b815260206004820152603c60248201527f464845543a3a5f7472616e73666572546f6b656e733a2063616e6e6f7420747260448201527f616e736665722066726f6d20746865207a65726f20616464726573730000000060648201526084016105db565b6001600160a01b038216610a345760405162461bcd60e51b815260206004820152603a60248201527f464845543a3a5f7472616e73666572546f6b656e733a2063616e6e6f7420747260448201527f616e7366657220746f20746865207a65726f206164647265737300000000000060648201526084016105db565b6001600160a01b038381165f9081526003602052604090205416610a5c57610a5c8384610bde565b6001600160a01b038281165f9081526003602052604090205416610a8457610a848283610bde565b6001600160a01b0383165f90815260026020908152604091829020548251606081019093526036808452610acf9367ffffffffffffffff909216928592919061130c908301396108f1565b6001600160a01b038481165f908152600260209081526040808320805467ffffffffffffffff191667ffffffffffffffff968716179055928616825290829020548251606081019093526030808452610b3894919091169285929091906112b390830139610c80565b6001600160a01b038381165f81815260026020908152604091829020805467ffffffffffffffff191667ffffffffffffffff968716179055905193851684529092918616917fddf252ad1be2c89b69c2b068fc378daa952ba7f163c4a11628f55a4df523b3ef910160405180910390a36001600160a01b038084165f90815260036020526040808220548584168352912054610bd992918216911683610cce565b505050565b6001600160a01b038083165f81815260036020818152604080842080546002845282862054949093528787167fffffffffffffffffffffffff0000000000000000000000000000000000000000841681179091559051919095169467ffffffffffffffff9092169391928592917f3134e8a2e6d97e929a7e54011ea5485d7d196dd5f0ba4d4ef95803e8e3fc257f9190a4610c7a828483610cce565b50505050565b5f80610c8c8486611274565b90508467ffffffffffffffff168167ffffffffffffffff1610158390610cc55760405162461bcd60e51b81526004016105db91906110cf565b50949350505050565b816001600160a01b0316836001600160a01b031614158015610cf957505f8167ffffffffffffffff16115b15610bd9576001600160a01b03831615610dbb576001600160a01b0383165f9081526005602052604081205463ffffffff169081610d37575f610d83565b6001600160a01b0385165f90815260046020526040812090610d5a600185611201565b63ffffffff16815260208101919091526040015f2054640100000000900467ffffffffffffffff165b90505f610da982856040518060600160405280602881526020016113fc602891396108f1565b9050610db786848484610e7c565b5050505b6001600160a01b03821615610bd9576001600160a01b0382165f9081526005602052604081205463ffffffff169081610df4575f610e40565b6001600160a01b0384165f90815260046020526040812090610e17600185611201565b63ffffffff16815260208101919091526040015f2054640100000000900467ffffffffffffffff165b90505f610e66828560405180606001604052806027815260200161142460279139610c80565b9050610e7485848484610e7c565b505050505050565b5f610e9f436040518060600160405280603481526020016113a460349139611069565b90505f8463ffffffff16118015610ef657506001600160a01b0385165f90815260046020526040812063ffffffff831691610edb600188611201565b63ffffffff908116825260208201929092526040015f205416145b15610f66576001600160a01b0385165f9081526004602052604081208391610f1f600188611201565b63ffffffff16815260208101919091526040015f20805467ffffffffffffffff92909216640100000000026bffffffffffffffff0000000019909216919091179055611013565b60408051808201825263ffffffff808416825267ffffffffffffffff80861660208085019182526001600160a01b038b165f908152600482528681208b8616825290915294909420925183549451909116640100000000026bffffffffffffffffffffffff19909416911617919091179055610fe3846001611295565b6001600160a01b0386165f908152600560205260409020805463ffffffff191663ffffffff929092169190911790555b6040805167ffffffffffffffff8086168252841660208201526001600160a01b038716917f3750d6d938cafba8ae4c5d0e44f0df156c31654cf0596c2c7ed37933603cf04a910160405180910390a25050505050565b5f8164010000000084106108e95760405162461bcd60e51b81526004016105db91906110cf565b5f602082840312156110a0575f80fd5b81357fffffffff00000000000000000000000000000000000000000000000000000000811681146108b7575f80fd5b5f602080835283518060208501525f5b818110156110fb578581018301518582016040015282016110df565b505f604082860101526040601f19601f8301168501019250505092915050565b80356001600160a01b0381168114611131575f80fd5b919050565b5f8060408385031215611147575f80fd5b6111508361111b565b946020939093013593505050565b5f805f60608486031215611170575f80fd5b6111798461111b565b92506111876020850161111b565b9150604084013590509250925092565b5f602082840312156111a7575f80fd5b6108b78261111b565b5f80604083850312156111c1575f80fd5b6111ca8361111b565b9150602083013563ffffffff811681146111e2575f80fd5b809150509250929050565b634e487b7160e01b5f52601160045260245ffd5b63ffffffff82811682821603908082111561121e5761121e6111ed565b5092915050565b5f63ffffffff8084168061124757634e487b7160e01b5f52601260045260245ffd5b92169190910492915050565b67ffffffffffffffff82811682821603908082111561121e5761121e6111ed565b67ffffffffffffffff81811683821601908082111561121e5761121e6111ed565b63ffffffff81811683821601908082111561121e5761121e6111ed56fe464845543a3a5f7472616e73666572546f6b656e733a207472616e7366657220616d6f756e74206f766572666c6f77734648453a3a7472616e7366657246726f6d3a20616d6f756e7420657863656564732036342062697473464845543a3a5f7472616e73666572546f6b656e733a207472616e7366657220616d6f756e7420657863656564732062616c616e63654648453a3a7472616e736665723a20616d6f756e7420657863656564732036342062697473464845543a3a7472616e7366657246726f6d3a207472616e7366657220616d6f756e742065786365656473207370656e64657220616c6c6f77616e6365464845543a3a5f7772697465436865636b706f696e743a20626c6f636b206e756d626572206578636565647320333220626974734648453a3a617070726f76653a20616d6f756e7420657863656564732036342062697473464845543a3a5f6d6f7665566f7465733a20766f746520616d6f756e7420756e646572666c6f7773464845543a3a5f6d6f7665566f7465733a20766f746520616d6f756e74206f766572666c6f7773a164736f6c6343000818000a",
  "linkReferences": {},
  "deployedLinkReferences": {}
}